:020000040800F2
:10000000F00900209D010008AD2C0008FB24000829
:10001000892800081D050008F534000800000000CC
:10002000000000000000000000000000D12C0008CB
:100030003D07000800000000CF2C00082D2D00080F
:10004000B7010008B7010008B7010008B7010008B0
:10005000B7010008B70100083F0700084107000882
:1000600045070008B7010008B7010008B7010008FC
:10007000B7010008B7010008B7010008B701000880
:10008000B7010008B7010008C50300085D050008B6
:10009000210500084505000851050008B7010008C2
:1000A000B7010008B7010008B7010008B701000850
:1000B000B7010008B7010008B7010008B701000840
:1000C000B7010008B7010008B7010008B701000830
:1000D000B7010008C1340008B7010008CD3400089A
:1000E000B7010008B7010008B7010008B701000810
:1000F000B7010008B7010008B7010008B701000800
:10010000B7010008B7010008312E0008B701000848
:10011000B7010008B7010008B7010008B7010008DF
:10012000B7010008B7010008B7010008B7010008CF
:10013000B7010008B7010008B7010008A5050008CD
:10014000690500088D05000899050008B701000839
:10015000B7010008B7010008B7010008B70100089F
:10016000B7010008B7010008B7010008B70100088F
:10017000B7010008B7010008B7010008000000003F
:10018000B7010008B7010008DFF80CD000F0BEF896
:1001900000480047D1360008F00900200648804793
:1001A00006480047FEE7FEE7FEE7FEE7FEE7FEE75C
:1001B000FEE7FEE7FEE7FEE7DD2D00088901000807
:1001C00040EA01039B0703D009E008C9121F08C0D9
:1001D000042AFAD203E011F8013B00F8013B521E59
:1001E000F9D270470EB5C10F80EAE0700844CA0723
:1001F000002140F233438DE80E000A460B4600F022
:1002000036F803B000BD0EB540F233410291002133
:10021000CDE900110A460B4600F029F803B000BDF5
:1002200030B5041E71F1000404DB4FF0004440427D
:1002300064EB0101141E73F1000405DB1C464FF052
:100240000043524263EB0403994208BF904230BD21
:1002500010B5141E73F1000408DA401C41F10001CE
:1002600092185B411A4301D120F0010010BD2DE925
:10027000F04D92469B4611B1B1FA81F202E0B0FA1C
:1002800080F22032904600F053F804460F4640EAD0
:100290000A0041EA0B0153465A46084313D011465F
:1002A00053EA010019D0C8F14002504600F04FF85F
:1002B00005460E4650465946424600F039F8084376
:1002C00005D0012004E020463946BDE8F08D00202D
:1002D000054346EAE0762C4337430A986305E40A6F
:1002E000A0EB08000022FD0A44EA47540A3002D578
:1002F00000200146E9E7010510196941DDE90845DB
:1003000000196941BDE8F04DA2E70000064C074D19
:1003100006E0E06840F0010394E8070098471034D5
:10032000AC42F6D3FFF734FF3C3D01085C3D0108C9
:10033000202A04DB203A00FA02F1002070479140A5
:10034000C2F1200320FA03F3194390407047202A9A
:1003500004DB203A21FA02F00021704721FA02F36F
:10036000D040C2F12002914008431946704770B551
:100370008C1810F8015B15F0070301D110F8013B50
:100380002A1106D110F8012B03E010F8016B01F8D7
:10039000016B5B1EF9D12B0705D40023521E0DD42F
:1003A00001F8013BFAE710F8013BCB1A921C03E07D
:1003B00013F8015B01F8015B521EF9D5A142D8D3B5
:1003C000002070BD10B5054800F07DFA044800F02B
:1003D0007AFABDE81040034800F075BA70020020B8
:1003E000B8020020000300204A4910B5D1F80423C8
:1003F00022F44032C1F80423D1F8042343681A439D
:10040000C1F8042301684A6822F480724A600168D6
:100410004A68036942EA03224A6001684A6822F096
:1004200040724A6001684A6883681A434A600168FA
:100430008A6822F400628A6001688A68C3681A4385
:100440008A60816A6FF07062D14201688A6822F026
:1004500070628A6001688A680CD0836A1A438A6075
:1004600001688A6822F040528A6001688A68C36A1B
:100470001A4301E022F040528A6001688A6822F043
:1004800002028A6001688A68836942EA43028A60DC
:10049000016A002901684A6815D042F400624A6086
:1004A00001684A6822F460424A6001684B684FF470
:1004B0006044426A94FAA4F4B4FA84F4521EA2404E
:1004C00013434B6002E022F400624A600168CA6A8A
:1004D00022F47002CA620168CA6A838B0E4C04EB74
:1004E00003531A43CA6201688A6822F400728A6060
:1004F00001688A68036B42EA43228A6001688A685D
:1005000022F480628A6001688A68406942EA802039
:10051000886010BD002001400000F0FFFEE70000F1
:1005200010B5064800F0CAFB054901200870BDE877
:1005300010400021014800F0BBBD0000480300202E
:1005400007000020014800F0B9BB0000480300206C
:10055000014800F0B3BB000048030020014800F050
:10056000ADBB00004803002010B5064800F0A6FB14
:10057000054901200870BDE810400021014800F045
:1005800097BD00008803002008000020014800F00B
:1005900095BB000088030020014800F08FBB0000DD
:1005A00088030020014800F089BB00008803002078
:1005B00010B54FF4D872036802EB01129B5813F088
:1005C0000404436B9C600468436BA45856D0E40851
:1005D0005C6003689A58436B02F00202DA604FF4E1
:1005E000DA72036802EB01129B58446B03F00F03AD
:1005F0002361436B196203689A58436BC2F3072265
:10060000DA614FF4DC72036802EB01129B58446B11
:10061000237503689B58446B1B0A637503689B58DA
:10062000446B1B0CA37503689A58436B120EDA7562
:100630004FF4DE72036802EB01129B58446B237681
:1006400003689B58446B1B0A637603689B58446B92
:100650001B0CA37603689A58436B120EDA7620229D
:10066000002901680DD00A6101684A6922F0100270
:100670004A6190F83810222909D021E0640D1C60ED
:10068000A7E7CA6001684A6922F00202F0E7016840
:100690004A6922F480724A6101684A6922F4007250
:1006A0004A6101684A6922F480624A6101684A69C4
:1006B00022F400624A6101684A6922F400424A61F8
:1006C00090F83810322907D05FF0010180F8381017
:1006D00000F031FD002010BD1221F7E710B50168D0
:1006E0004A6922F001024A6190F83810122918D1A3
:1006F00001684A6922F480724A6101684A6922F4F9
:1007000000724A6101684A6922F480624A610168A4
:100710004A6922F400624A6101684A6922F400428F
:100720004A6190F83810322906D0012180F838103B
:1007300000F0CCFD002010BD2221F7E77047704784
:100740007047000006480168490708D50421016088
:1007500004490878401C0870042000F0FCBD704774
:10076000143C0140200200207047000078B50024AE
:10077000009490F83C20012A19D0012280F83C20F6
:100780000A6807230568092A13D9EE680A3A02EBBA
:10079000420293409E43EE600B788A680A3B03EB6B
:1007A00043039A400368DD682A43DA6010E00220C0
:1007B00078BD2E6902EB420293409E432E610A7877
:1007C0008B6802EB42029340026815692B43136168
:1007D0004A681F23072A13D205686E6B521E02EB6C
:1007E000820293409E436E630B790A885B1E92B22D
:1007F00003EB83039A4003685D6B2A435A6327E047
:1008000005680D2A12D22E6BD21F02EB8202934092
:100810009E432E630B790A88DB1F92B203EB83039E
:100820009A4003681D6B2A431A6311E0EE6A0D3A81
:1008300002EB820293409E43EE620B790A880D3BE5
:1008400092B203EB83039A400368DD6A2A43DA62BB
:10085000174A0368934208D10B68122B05D1D2F8CE
:10086000043343F48003C2F80433036893421AD17B
:100870000B68102B01D0112B15D1D2F8043343F49F
:100880000003C2F80433096810290CD109490A4A47
:100890000968B1FBF2F101EB8101490000E0491E5A
:1008A00000910029FBD180F83C40002078BD000079
:1008B000002001402802002040420F00704770478E
:1008C0000068C06C704770B50446006801684268F3
:1008D000C1F34001C2F3401251B34AB3216CC906BF
:1008E00003D4216C41F400712164816811F0405FF0
:1008F00017D1A169A9B9C16A11F4700F02D081683A
:1009000049050ED4416821F020014160206C20F49B
:1009100080702064206CC00403D4206C40F001007F
:1009200020642046FFF7CAFF21686FF012000860BC
:10093000206801684268C1F38001C2F3C01289B324
:1009400082B3216CC90603D4216C41F400512164A7
:10095000816811F4401F1ED1816B11F4401F02D039
:100960008168490517D44168490514D4816811F09C
:10097000405F10D1A16971B9416821F080014160E7
:10098000206C20F480502064206CC00503D4206CBF
:1009900040F0010020642046FFF7E6FE21686FF07A
:1009A0000C00086020680168426811F0010FC2F372
:1009B00080120ED06AB10068C0070AD0206C40F4E3
:1009C00080302064204600F046F821686FF0010076
:1009D0000860206801684268C1F34011C2F3806278
:1009E00000290DD0002A0BD0616C41F00201616436
:1009F0006FF0200505602046FFF761FF2068056065
:100A000070BD70B504004FF0000503D0206C0026C7
:100A100010B107E0012070BD666484F83C60204698
:100A200000F01AF8206CC00610D4206C20F4885016
:100A300040F0020020642046FFF7D6FC6664206C7C
:100A400020F0020040F00100206400E0012584F85D
:100A50003C60284670BD704770B51C4E056800228A
:100A60001B49062303241B4886B0B54207D10D68F5
:100A700045F480750D60096801F4807109E0164E37
:100A8000B54217D10D6845F400750D60096801F491
:100A9000007100930591CDE90142694600F05CFCCC
:100AA00000221146122000F04DFE122000F03EFE02
:100AB00006B070BD094EB542FAD10D6845F48065A7
:100AC0000D60096801F48061E3E700000020014047
:100AD0004438024000080240002101400022014049
:100AE00018B50021009190F83C20012A07D001227E
:100AF00080F83C2002689368DB0702D011E00220F6
:100B000018BD936843F001039360204A204B12689C
:100B1000B2FBF3F202EB420200E0521E0092002A06
:100B2000FBD102689368DB072DD0036C40F20164AF
:100B3000A34343F48073036453685B0505D5036CDA
:100B400023F4005343F480530364036CDB0404D5A3
:100B5000436C23F00603436400E0416480F83C10DA
:100B60006FF0220111600B49D1F804230068D2060E
:100B700001D0884207D1816811F0405F03D18168BC
:100B800041F080418160002018BD00002802002053
:100B900040420F000020014090F83C1001290CD089
:100BA000012180F83C1001688A6822F001028A6005
:100BB00001688968C90702D007E002207047016C0C
:100BC00021F4885141F001010164002180F83C10BA
:100BD00008467047F0B50A7D01209040344A1368FA
:100BE00043F001031360136823F47C53136013680C
:100BF0004C6A43EA042313602D4B1C331C68844366
:100C00001C602B4D2B4CCE690C35A6B92E68864343
:100C10002E608F894E6867F31F464F6904EBC70744
:100C2000C7F840660F890E6867F31F464F6904EBEB
:100C3000C707C7F84466CE69012E14D12E68064353
:100C40002E600E884D6866F31F454E6904EBC6069C
:100C5000C6F840560E89CD6866F31F454E6904EB11
:100C6000C604C4F84456124C8D69241D002D256815
:100C700006D0054325600E4C0D69143415B104E00F
:100C80008543F7E72568854325600D69012D02D16D
:100C9000256805432560096A012902D119680143C5
:100CA0001960106820F0010010600020F0BD000005
:100CB00000660040006000407047000010B5044628
:100CC00000684169C943C90714D1826858499143F2
:100CD00068D000218368574A9A4365D00022836810
:100CE0005548984362D000201143014302D020466A
:100CF000FFF7F4FC2068C168406911F0030FC0F3EE
:100D0000400004D018B100212046FFF751FC2168B3
:100D10000869496910F0030FC1F3001104D019B13B
:100D200001212046FFF744FC20688169426911F0E7
:100D3000010FC2F300234269C2F3C03205D023B1D0
:100D40001AB1E16B41F00101E1638169C1F3400334
:100D500041694269C1F34021C2F3C0322BB121B1D4
:100D60001AB1E16B41F00201E16381694269C1F3AB
:100D70008001C2F380234269C2F3C03229B123B19A
:100D80001AB1E16B41F00401E163816911F0700F68
:100D90000ED0002142694369C2F3C022C3F3C033BD
:100DA00041B127E0012195E7012298E701209BE767
:100DB0000121EFE7F2B1EBB1816901F07001402947
:100DC00029D006DC102909D020290BD030290DD1DB
:100DD0001DE0502923D0602908D124E0E16B41F0C7
:100DE000080102E0E16B41F01001E163816921F04B
:100DF00070018161E06B002808D021680420486000
:100E0000012084F838002046FFF756FF10BDE16B43
:100E100041F02001E9E7E16B41F04001E5E7E16BDA
:100E200041F08001E1E7E16B41F48071DDE7000012
:100E30000300000400030008000003102DE9F04146
:100E4000040004D094F83800002518B107E0012010
:100E5000BDE8F08184F83950204600F093F8022074
:100E600084F838002068016821F0020101602068E0
:100E7000016841F00101016000F046FB07460326CE
:100E800005E000BF00F040FBC01B0A2863D82068C3
:100E90004068C007F6D020684168C90768D0A169DA
:100EA000012901683FD021F080010160E06901283B
:100EB000206801683AD021F040010160206A0128D1
:100EC0002068016835D021F020010160606A0128A6
:100ED0002068016830D021F010010160A06A01286B
:100EE000206801682BD021F008010160E06A012828
:100EF0002068016826D021F004010160D4E90201D4
:100F00000843D4E90412114308436168491E0843A9
:100F10002168C8612068016821F00101016000F0CA
:100F2000F3FA07461CE041F08001BEE741F04001C2
:100F3000C3E741F02001C8E741F01001CDE741F0DF
:100F40000801D2E741F00401D7E700BF00F0DCFA66
:100F5000C01B0A2804D904F8386F0320657077E7AE
:100F600020684068C007F1D120684068C00703D0FE
:100F7000042084F838006AE7E563012084F838002B
:100F8000002065E7F0B5464BDFF810E1D0F800C06F
:100F900019680225032609274248434A0024491CB0
:100FA00087B0F44533D11960012907D1116841F0A8
:100FB00000711160116801F0007105914FF44071EA
:100FC000CDE9001502AA694682E8D00000F0C4F914
:100FD00000221146132000F0B5FB132000F0A6FB01
:100FE00000221146142000F0ADFB142000F09EFBFF
:100FF00000221146152000F0A5FB152000F096FBFD
:1010000000221146162000F09DFB162041E0DFF87B
:101010009CE0F4453FD1D2F800C04CF0806CC2F89F
:1010200000C0D2F800C001290CF0806CCDF814C0CB
:10103000196007D1116841F000711160116801F069
:10104000007105916021CDE9001502AA694682E888
:10105000D00000F081F9002211463F2000F072FB21
:101060003F2000F063FB00221146402000F06AFBA5
:10107000402000F05BFB00221146412000F062FBA3
:10108000412000F053FB00221146422000F05AFBA1
:10109000422000F04BFB07B0F0BD000000640040B0
:1010A0000000002000040240403802400068004078
:1010B00010B590F83820012A01D0122A39D190F8C1
:1010C0003920012A35D0012280F8392090F83820C3
:1010D000122A29D05FF0220280F838200022C26351
:1010E00003685C6944F480745C6103685C6944F47F
:1010F00000745C6103685C6944F480645C6103684B
:101100005C6944F400645C6103685C6944F4004415
:101110005C6180F8392000680029416906D041F0FF
:1011200010014161002010BD3222D5E741F00201DB
:10113000F7E7022010BD70472DE9F05F0E46016809
:1011400004468868400105D48868000102D4886894
:10115000C00067D594F8390001280ED0012784F823
:10116000397094F8380022280AD0122084F8380008
:101170008868400106D500250AE00220BDE8F09FFE
:101180003220F3E78868000101D5012500E002253F
:101190004FF4C07000EB05100A5802F001020A502B
:1011A000216B8A68EAB3D4F800C05CF800301343BE
:1011B000CA68496842EAC1010B434CF80030216B10
:1011C0000A7C02F00F020A614FF4C271226801EB3F
:1011D0000511535823F00F03535022685358D4F885
:1011E00030C0DCF810C043EA0C035350216B4FF4BD
:1011F000C47303EB05130A7DD1F8151042EA0121EF
:101200002268D150216B4FF4C67303EB05130A7E9D
:10121000D1F8191042EA01212268D15021680A58F8
:1012200001E00DE046E042F001020A5000F06CF9E6
:1012300081464FF00008DFF888A0DFF888B019E099
:1012400022681358D1F80CC0098843EA0C0343EA1A
:1012500041511150B3E7701C0CD02EB100F054F97D
:10126000A0EB0900B04205D9032084F8380084F8C7
:10127000398083E795B12068012D816813D0124829
:1012800088430028E7D194F8380032280ED084F83B
:10129000387000BF84F8398000206FE720688168CB
:1012A0002AEA0100EDE72BEA0100EAE7222084F8B0
:1012B0003800EFE7042084F8380001205EE70000E2
:1012C000030000040003000800000310704710B57D
:1012D000040002D0607910B106E0012010BD0020AA
:1012E0002071204600F006F8022060710120607134
:1012F000002010BD08B500680649884208D106489C
:10130000016841F480510160006800F48050009051
:1013100008BD0000003002403038024090F835101F
:10132000022903D08021416501207047052180F802
:1013300035100068016821F001010160002070474C
:1013400031B500F0E1F8044600F0DEF80099001B2A
:101350008842F9D338BD70472DE9F84FDFF87CB1EA
:1013600000224FF001084FF0030A4FF00F090BF174
:10137000040E00BF0B6808FA02F42340A3426ED1AA
:101380004D68022D01D0122D0ED1D50800EB850C31
:10139000DCF820505607F70E09FA07F6B5430E6938
:1013A000BE402E43CCF82060066855000F790AFA3B
:1013B00005FC07F0030726EA0C06AF403743076039
:1013C0004E68012E05D0022E03D0112E01D0122E10
:1013D0000ED18668CF6826EA0C06AF403743876097
:1013E0004668A6430C79C4F3001494403443446027
:1013F000C6688C6826EA0C06AC403443C4604C686E
:10140000E40065D5364C256845F4804525602468A0
:1014100022F0030504F480440094324C2E19D6F8CF
:10142000084895072F0F09FA07F5AC432E4DA8423F
:1014300001D1002524E02D4DA84201D101251FE056
:101440002B4DA84201D102251AE02A4DA84201D114
:10145000032515E0284DA84202D1042510E037E00D
:10146000264DA84201D105250AE0254DA84201D10B
:10147000062505E0234DA84201D1072500E00825F7
:10148000BD402543C6F80858DBF800405D464E686D
:101490009C43F60300D51C432C60DEF800407546E3
:1014A0004E689C43B60300D51C432C600B4D083599
:1014B0002C684E689C43F60200D51C432C60074DF7
:1014C0000C352C684E689C43B60200D51C432C603A
:1014D000521C102AFFF44EAFBDE8F88F003C0140CB
:1014E0004438024000300140000002400004024045
:1014F00000080240000C02400010024000140240AC
:1015000000180240001C02400148006870470000BB
:101510002402002070B5040004D094F83D0000259A
:1015200010B106E0012070BD84F83C50204600F068
:1015300075F8242084F83D002068016821F001013D
:10154000016000F0F5F933492268B0FBF1F1516018
:10155000314A6368934206D94FF4967359434FF466
:101560007A73B1FBF3F12368491C196261689142F7
:101570000BD84900B0FBF1F2C2F30B02042A01D2EE
:10158000042019E0B0FBF1F016E0A3689BB301EB77
:10159000C10202EB0112B0FBF2F242F480421205EA
:1015A00030D04BB301EBC10202EB0111B0FBF1F003
:1015B00040F4804040F400402168C861D4E907014C
:1015C000084321680860D4E9031008432168886053
:1015D000D4E9050108432168C8602068016841F02A
:1015E000010101602564202084F83D00256384F812
:1015F0003E50002070BD00E006E001EB4102B0FB70
:10160000F2F2CCE70120D7E701EB4101B0FBF1F0AA
:10161000D0E7000040420F00A086010000B500683E
:101620000E4987B0884217D14FF4406000901220D5
:101630000190012002900320039004200490694649
:101640000748FFF789FE0748016841F480010160FF
:10165000006800F48000059007B000BD005800400D
:10166000000402404038024002480168491C016001
:1016700070470000240200200B4810B5016841F4B7
:1016800000710160016841F480610160016841F40A
:1016900080710160032000F075F8002000F006F86A
:1016A00000F018F8002010BD003C024010B50446C0
:1016B00007484FF47A710068B0FBF1F000F04BFB83
:1016C00000222146501E00F03DF8002010BD000011
:1016D0002802002010B5032000F054F80022114623
:1016E0006FF00B0000F02EF8002211466FF00A0098
:1016F00000F028F8002211466FF0090000F022F8EF
:1017000000221146501F00F01DF800221146101F44
:1017100000F018F800221146901E00F013F8002285
:10172000BDE810401146501E00F00CB800F01F023A
:10173000012191404009800000F1E020C0F8001133
:1017400070470000F0B40E4B1B680C46C3F3022335
:10175000C3F10705042D00D90425191D072901D25D
:10176000002300E0DB1E012606FA05F1491E214098
:1017700099409E40761E16403143F0BC01F097BA66
:101780000CED00E0064900F0070208684FF6FF0381
:10179000184040EA0220034A1043086070470000E6
:1017A0000CED00E00000FA052DE9F047DFF8649148
:1017B00005460F46D9F8000000F00F01F8B2804648
:1017C000B94208D2014689F80010D9F8000000F0AB
:1017D0000F00B84274D128784F4C800705D5206897
:1017E000A96820F0F000084320602878C00759D08D
:1017F00049496868083901281AD002281BD00328F3
:1018000019D00968890700295ADA216821F00301F3
:1018100001432160FFF778FE6968064641F288308F
:10182000012911D002291DD00329824627D035E095
:1018300009688903E7E709688901E4E7FFF764FEBF
:10184000811B514501D926E082462068C0F3810002
:101850000128F3D126E000BFFFF756FE811B51455A
:1018600001D918E082462068C0F381000228F3D134
:1018700018E000BFFFF748FE811B51450BD82068D8
:10188000C0F381000328F5D10CE000BFFFF73CFE58
:10189000811B514502D90320BDE8F087206810F074
:1018A0000C0FF3D1D9F80010484601F00F01B942EE
:1018B00008D980F80080006800F00F00B84201D01D
:1018C0000120E9E72878400705D52068E96820F479
:1018D000E050084320602878000706D52068296971
:1018E00020F4604040EAC100206000F051F8216817
:1018F000F02292FAA2F201F0F001B2FA82F2D140A3
:10190000064A515CC840064908600020FFF7CEFE39
:101910000020C1E7003C0240083802402C3D01088D
:1019200028020020014800687047000028020020BB
:1019300008480949006809684FF4E05292FAA2F297
:1019400001F4E051B2FA82F2D140044A515CC8403D
:101950007047000028020020083802402C3D010892
:1019600008480949006809684FF4604292FAA2F2F7
:1019700001F46041B2FA82F2D140044A515CC8409D
:101980007047000028020020083802402C3D010862
:10199000154810B5006810F00C01144823D0042934
:1019A00021D008291FD11049091F0A6802F03F03FE
:1019B0000A68B0FBF3F00B6847F6C072134092FA66
:1019C000A2F2B2FA82F2D340096858434FF440328F
:1019D00092FAA2F201F44031B2FA82F2D140491CEB
:1019E0004900B0FBF1F010BD083802400024F400BB
:1019F0002DE9F84F0446DFF8CC820078A8F1040BFB
:101A0000C007ABF1040537D0D8F800104046C1F349
:101A10008101012908D00068C0F3810002280AD1A1
:101A2000DBF80000400206D52868800324D56068F2
:101A3000002878D020E0A3492079891F08706068C9
:101A400068B1FFF761FD064605E000BFFFF75CFDEA
:101A5000801B642868D828688003F7D50CE0FFF75E
:101A600053FD064605E000BFFFF74EFD801B6428CE
:101A7000F0D828688003F7D42078934E80074FF081
:101A8000010A4FF0000742D5D8F80010404611F087
:101A90000C0F08D00068C0F3810002280AD1DBF8DF
:101AA0000000400206D42868800714D5E0680128A9
:101AB00039D110E0E068D8B1C6F800A0FFF724FDE6
:101AC000814605E0FFF720FDA0EB09000228C1D800
:101AD00028688007F6D52868F82292FAA2F22169D0
:101AE000B2FA82F220F0F8009140084328600EE03C
:101AF0003760FFF709FD814606E000BFFFF704FDF0
:101B0000A0EB090002280FD828688007F6D42078B7
:101B1000000728D56D486169A1B1C0F800A0FFF7A2
:101B2000F3FC814608E0CAE079E000BFFFF7ECFC77
:101B3000A0EB0900022872D862486C300068800768
:101B4000F4D510E00760FFF7DFFC814606E000BF38
:101B5000FFF7DAFCA0EB0900022860D859486C3086
:101B600000688007F4D42078400749D555483830BC
:101B7000016841F080510160006800F080500090E1
:101B80005348016841F480710160FFF7BDFC814654
:101B900006E000BFFFF7B8FCA0EB090002283ED822
:101BA0004B480068C005F5D5DFF81891207A09F197
:101BB000680989F80000A06888B1FFF7A5FC0090CB
:101BC00008E000BFFFF7A0FC0099411A41F28830FD
:101BD00081426CD8D9F800008007F3D510E0FFF7F8
:101BE00093FC009008E000BFFFF78EFC0099411ABB
:101BF00041F2883081425AD8D9F800008007F3D4E6
:101C0000A069E0B3D8F80010C1F38101022956D0D1
:101C10000228376604D0FFF777FC04464AE046E026
:101C2000FFF772FC074604E0FFF76EFCC01B0228BA
:101C30003DD828688001F7D4D4E90701084347F666
:101C4000C07292FAA2F2616AB2FA82F29140A26A7A
:101C50004FF0FF3303EB52024FF4403393FAA3F3F8
:101C6000B3FA83F39A40114308434FF0706292FA3B
:101C7000A2F2E16AB2FA82F29140084300E01CE06D
:101C8000CBF80000C6F860A0FFF73EFC044604E075
:101C9000FFF73AFC001B022809D828688001F7D515
:101CA0000BE000BFFFF730FC001B022802D9032025
:101CB000BDE8F88F28688001F4D40020F8E70120FF
:101CC000F6E700000838024000004742800E474215
:101CD0000070004070B5040008D02079012807D0BA
:101CE000012525716079002620B107E0012070BD33
:101CF000022070BD2671204600F00CF802206071B1
:101D00002068016841F004010160657126710020BE
:101D100070BD000008B500680649884208D1064831
:101D2000016841F040010160006800F0400000904F
:101D300008BD000000080650343802404FF0E02192
:101D40000428086903D020F004000861704740F0BF
:101D50000400FAE7704710B5401EB0F1807F01D350
:101D6000012010BD4FF0E02460610F21601700F0EA
:101D70009EFF0020A06107202061002010BD10B54B
:101D8000FFF7E8FF10BD7047704730B590F8382076
:101D9000012A20D0012280F83820022380F839302F
:101DA00003685C6824F070045C6003685C680D681C
:101DB0002C435C6003689C6824F080049C6003688A
:101DC0009C6849680C439C6080F83920002180F8A9
:101DD0003810084630BD022030BD2DE9F0410D46D7
:101DE000040003D094F8390018B108E00120BDE8E0
:101DF000F081002084F83800204600F039F80220F5
:101E000084F839002068816821F007018160211D74
:101E1000206801F013F8226890689169166A2B68AF
:101E2000AF69034340F20330814341EA0721A868C8
:101E3000EF6908434FF6FC418843E96840EA072010
:101E4000014328692F6A000140EA073008436968A6
:101E50006D6926F0AA0646EA0515294393602268B3
:101E6000906120680162012084F839000020BEE7FB
:101E700000B50068104987B088421BD10F48002286
:101E8000016841F0080101600068022100F00800CB
:101E9000059003208DE80700CDE903016946084855
:101EA000FFF75AFA002211463220FFF74BFC32208E
:101EB000FFF73CFC07B000BD000C0040403802407A
:101EC0000000024010B50446006891B1042904D016
:101ED0000122002101F012F8206801225FF00401C4
:101EE00001F00CF82068016841F001010160002058
:101EF00010BD01220021F3E77047000070B50446D1
:101F0000006801694FF00005C943890715D4C1680D
:101F1000C943890711D4E91E016101202076206898
:101F200080698007204602D0FFF7E6FF04E000F05A
:101F3000C3F8204600F056F9257620680169C943A8
:101F4000490717D4C168C943490713D46FF0040186
:101F50000161022020762068806910F4407F2046CD
:101F600002D0FFF7C9FF04E000F0A6F8204600F019
:101F700039F9257620680169C943090716D4C16873
:101F8000C943090712D46FF00801016104202076CB
:101F90002068C0698007204602D0FFF7ADFF04E04B
:101FA00000F08AF8204600F01DF9257620680169C6
:101FB000C943C90617D4C168C943C90613D46FF011
:101FC00010010161082020762068C06910F4407F6C
:101FD000204602D0FFF790FF04E000F06DF82046A5
:101FE00000F000F9257620680169C943C90719D1B5
:101FF000C168C943C90715D1891E016121680868F4
:10200000C043C2061F4803D40178491C017006E092
:102010000968C943C90602D54178491C4170204668
:1020200000F0E1F820680169C943090609D4C168D4
:10203000C943090605D46FF0800101612046FFF70E
:10204000A2FE20680169C943490609D4C168C94391
:10205000490605D46FF040010161204600F0C4F844
:1020600020680169C94389060BD4C168C943890640
:1020700007D46FF0200101612046BDE87040FFF7F2
:1020800083BE70BD0400002000B5006885B0B0F1CB
:10209000804F0DD108200090022001900020029076
:1020A000032003900120049069460248FFF754F989
:1020B00005B000BD00040240704770B5044690F8BA
:1020C00038000D4601280DD0012684F83860022022
:1020D00084F8390042B1042A18D0082A2AD00C2AE0
:1020E0004DD139E0022070BD206800F01DFF20684E
:1020F000816941F0080181612068816921F0040152
:102100008161206881692A69114311E0206800F02B
:1021100037FF2068816941F400618161206881692D
:1021200021F480618161206881692A6941EA022184
:10213000816124E0206800F055FF2068C16941F00A
:102140000801C1612068C16921F00401C1612068F2
:10215000C1692A69114311E0206800F073FF20680B
:10216000C16941F40061C1612068C16921F48061E5
:10217000C1612068C1692A6941EA0221C16184F80C
:102180003960002084F8380070BD10B5040003D019
:1021900094F8390010B107E0012010BD002084F848
:1021A0003800204600F00CF8022084F83900211D88
:1021B000206800F043FE012084F83900002010BDA3
:1021C00008B50068B0F1804F08D10548016841F0BA
:1021D00001010160006800F00100009008BD0000EE
:1021E00040380240704770477047704770B50268CA
:1021F00004461068D168536910F00F0F51D003F0F6
:10220000010501F4907635435DD0C20705D0CA05BB
:1022100003D5E26B42F00102E263420705D5DA071B
:1022200003D0E26B42F00202E263820705D5DA07CF
:1022300003D0E26B42F00402E263020705D5DA073D
:1022400003D0E26B42F00802E263E26B002A34D072
:10225000800604D5880602D5204600F031FF2068AC
:102260004069E16BC0F3801001F008010143204692
:1022700024D000F017FF2068416949061AD541694A
:1022800021F040014161606BA0B11B490165606BA9
:10229000FFF744F8002810D0606B016DBDE8704076
:1022A000084783060FD58B060DD52046BDE8704044
:1022B00000F006BF2046FFF798FF70BDFFF795FFBF
:1022C0000020E06370BD030606D50B0604D520464A
:1022D000BDE8704001F090B84006F3D54806F1D54E
:1022E000D168204621F04001D160202184F83910C6
:1022F00000F002F970BD00009530000870B50400D0
:1023000004D094F83900002510B106E0012070BD1A
:1023100084F83850204600F023F8242084F839004F
:102320002068C16821F40051C160204600F00EFF12
:102330002068016921F4904101612068416921F020
:102340002A0141612068C16841F40051C160E56320
:10235000202084F8390084F83A00002070BD000085
:1023600030B500681E4D022101220323072487B0E7
:10237000A84216D11B48056845F0100505600068A5
:1023800000F01000059058028DE81F0069461648BD
:10239000FEF7E2FF002211462520FFF7D3F92520A2
:1023A0001AE0124DA84219D10E48001F056845F4E5
:1023B00080250560006800F4802005904FF440708F
:1023C0008DE81F0069460A48FEF7C6FF0022114645
:1023D0002720FFF7B7F92720FFF7A8F907B030BD8E
:1023E0000010014044380240000002400048004014
:1023F000000C024090F83A30202B1DD1D1B1CAB167
:1024000090F83830012B17D081628285C285002177
:10241000C163222280F83A2080F8381001684A69A6
:1024200042F001024A610068C16841F49071C160E4
:1024300000207047012070470220704770472DE947
:10244000F843044690F839001F4616460D462028EA
:1024500050D1A5B19EB194F8380001284AD001208E
:1024600084F838004FF00008C4F83C80212084F83C
:102470003900FFF749F8A6848146E68426E001206A
:10248000BDE8F883E08C401EE084A0684B46B0F5C0
:10249000805F4FF000024FF080012046009703D08C
:1024A00000F0DBFFE8B90DE000F0D7FFC8B92888DD
:1024B0002168C0F308004860206908B16D1C05E080
:1024C000AD1C03E0216815F8010B4860E08C002882
:1024D000D8D14B46002240212046009700F0BDFF96
:1024E00008B10320CCE7202084F8390084F8388034
:1024F0000020C5E70220C3E77047FEE77FB511481B
:102500000F49002401604FF48031C0E901140461D7
:1025100084610462C4620125C460C56145610463CD
:10252000FEF76FFA00B1FEE70B20CDE90005694622
:1025300002940448FEF71AF9002800D0FEE77FBD98
:1025400000200140700200207FB511480F4900248F
:1025500001604FF48031C0E90114046184610462B8
:10256000C4620125C460C56145610463FEF749FA90
:1025700000B1FEE70C20CDE900056946029404484D
:10258000FEF7F4F8002800D0FEE77FBD00210140EF
:10259000B80200207FB511480F49002401604FF4B4
:1025A0008031C0E90114046184610462C4620125C0
:1025B000C460C56145610463FEF723FA00B1FEE71C
:1025C0000C20CDE90005694602940448FEF7CEF8D8
:1025D000002800D0FEE77FBD00220140000300205C
:1025E00010B515481349002401600321C0E9011406
:1025F0004FF40021C0E903414FF44011C0E9051434
:10260000C461046244628462C462FEF717FC00B1D4
:10261000FEE70A4801214461C0E9064104604460C4
:102620008460C460046101620146BDE81040024854
:10263000FEF7D0BA006400404803002048040020A0
:1026400010B516481449002401600321C0E90114A3
:102650004FF40021C0E903414FF44011C0E90514D3
:10266000C461046244628462C462FEF7E7FB00B1A5
:10267000FEE70A480121E8304461C0E906410460F0
:1026800044608460C460046101620146BDE810409A
:10269000E838FEF79FBA0000006800408803002079
:1026A000F0B5454887B00025016841F01001016090
:1026B000016801F010010591016841F00401016019
:1026C000016801F004010591016841F08001016099
:1026D000016801F080010591016841F0010101608C
:1026E000016801F001010591016841F002010160FA
:1026F000016801F002010591016841F008010160E3
:102700000068012600F008000590042000902B4886
:10271000CDE901062A4F69463846FEF71DFE4FF601
:10272000FB7003248DE8310069463846FEF714FE3D
:102730004FF6F9708DE8310069462248FEF70CFE2D
:1027400049F6FC108DE8310069461F48FEF704FE8B
:102750001E480094CDE901061D4E69463046FEF73D
:10276000FBFD4FF294008DE8310069463046FEF7DC
:10277000F3FD4FF6FF408DE8310069461548FEF73E
:10278000EBFD002211460620FEF7DCFF0620FEF7D7
:10279000CDFF002211460720FEF7D4FF0720FEF7E9
:1027A000C5FF002211460820FEF7CCFF0820FEF7E7
:1027B000BDFF07B0F0BD000030380240000021101E
:1027C000001002400008024000000240000011100A
:1027D00000040240000C024010B513488AB04FF0CC
:1027E00080410024C0E900148460C4600461FFF7E4
:1027F000CCFC00B1FEE7079407A90B480894FFF74B
:10280000C4FA00B1FEE76020CDE90004029404227E
:10281000694605480494FFF750FC00B1FEE7024802
:10282000FFF732FC0AB010BDF804002010B51548BF
:102830008CB013490024C0E900148914C0E9024196
:1028400004610320CDE900040120CDE902040494D1
:10285000CDE90540079469460A480894FFF7BDFA98
:1028600000B1FEE7099409A906480A94FFF78DFA1A
:1028700000B1FEE718210348FFF724FB0CB010BDA0
:10288000000C004034050020FEE70000F0B59FB0CA
:10289000382283490EA8FDF793FC814C14F8380FB9
:1028A0008DF870007E4D183D35F8510FADF8710070
:1028B000A8788DF8730060681D907A4E4FF4887088
:1028C000CDE90C06302212A96846FDF779FC0EAF5F
:1028D00097E80F0000F0FEF9382271490EA8FDF7C5
:1028E0006FFC20788DF870002888ADF87100A8780A
:1028F0008DF8730060681D904FF49070CDE90C0660
:10290000302212A96846FDF75BFC97E80F0000F043
:10291000E1F9382262490EA8FDF752FC20788DF8C3
:1029200070002888ADF87100A8788DF87300606891
:102930001D904FF49870CDE90C06302212A968461C
:10294000FDF73EFC97E80F0000F0C4F94FF47A77EA
:102950003846FEF7F5FC382251490EA8FDF730FC49
:1029600020788DF870002888ADF87100A8788DF86F
:10297000730060681D90303640F21110CDE90C06EE
:10298000302212A96846FDF71BFC0DF1380C9CE8BB
:102990000F0000F09FF9382241490EA8FDF710FC06
:1029A00020788DF870002888ADF87100A8788DF82F
:1029B000730060681D9040F22110CDE90C063022B2
:1029C00012A96846FDF7FCFB0DF1380C9CE80F00DE
:1029D00000F080F9382232490EA8FDF7F1FB20788B
:1029E0008DF870002888ADF87100A8788DF8730014
:1029F00060681D9040F23110CDE90C06302212A91A
:102A00006846FDF7DDFB0EAE96E80F0000F062F9B8
:102A10003846FEF795FC382221490EA8FDF7D0FB79
:102A200020788DF870002888ADF87100A8788DF8AE
:102A3000730060681D901B4E4FF48D704836CDE9D1
:102A40000C06302212A96846FDF7BAFB0DF1380CCE
:102A50009CE80F0000F03EF9382211490EA8FDF75E
:102A6000AFFB20788DF870002888ADF87100A87849
:102A70008DF8730060681D904FF49570CDE90C06D9
:102A8000302212A96846FDF79BFB0EAC94E80F00BC
:102A900000F020F91FB03846BDE8F040FEF750BC0A
:102AA000480300204C00002070B59EB038227D49BC
:102AB0000EA8FDF785FB7B4C14F8380F8DF87000DD
:102AC000784D183D35F8510FADF87100A8788DF8A4
:102AD000730060681D90744E1020CDE90C06302202
:102AE00012A96846FDF76CFB0DF1380C9CE80F004D
:102AF00000F0F0F838226B490EA8FDF761FB207852
:102B00008DF870002888ADF87100A8788DF87300F2
:102B100060681D902020CDE90C06302212A968467D
:102B2000FDF74EFB0DF1380C9CE80F0000F0D2F8D9
:102B300038225C490EA8FDF743FB20788DF8700021
:102B40002888ADF87100A8788DF8730060681D9032
:102B50003020CDE90C06024612A96846FDF730FB8D
:102B60000DF1380C9CE80F0000F0B4F838224D4904
:102B70000EA8FDF725FB20788DF870002888ADF8A9
:102B80007100A8788DF8730060681D904020CDE931
:102B90000C06302212A96846FDF712FB0EAE96E82D
:102BA0000F0000F097F84FF47A70FEF7C9FB382257
:102BB0003C490EA8FDF704FB20788DF870002888AA
:102BC000ADF87100A8788DF8730060681D90364EDE
:102BD00011200836CDE90C06302212A96846FDF70F
:102BE000EFFA0DF1380C9CE80F0000F073F8382272
:102BF0002C490EA8FDF7E4FA20788DF8700028889B
:102C0000ADF87100A8788DF8730060681D902120E0
:102C1000CDE90C06302212A96846FDF7D1FA0DF174
:102C2000380C9CE80F0000F055F838221D490EA81A
:102C3000FDF7C6FA20788DF870002888ADF871008D
:102C4000A8788DF8730060681D903120CDE90C06DE
:102C5000302212A96846FDF7B3FA0DF1380C9CE852
:102C60000F0000F037F838220E490EA8FDF7A8FA39
:102C700020788DF870002888ADF87100A8788DF85C
:102C8000730060681D904120CDE90C06302212A926
:102C90006846FDF795FA0EAC94E80F0000F01AF8BC
:102CA0001EB070BD480300204C000020704709078B
:102CB000090E002806DA00F00F0000F1E02080F88D
:102CC000141D704700F1E02080F800147047704731
:102CD000704700000FB4DDE910100C9A11600C9AD7
:102CE0000021D1600C9A91600C9A082111610C9A14
:102CF000017811750C9A417851750C9A817891750B
:102D00000C9AC178D1750C9A017911760C9A417997
:102D100051760C9A817991760C99C079C876C82140
:102D2000014804B0FEF708BA4803002010B5FEF7CA
:102D30009BFCBDE81040FFF722B8000030B52548E5
:102D400093B00025016841F080510160006800F0F7
:102D5000805011902048016841F480410160006872
:102D6000022400F480401190012003901020009470
:102D700006940490CDE907504FF4A870CDE90904FA
:102D800007200B906846FEF733FE00B1FEE70CA962
:102D90000F2081E831004FF4A0500F904FF4805085
:102DA000109005210CA8FEF7FFFC00B1FEE7FEF72E
:102DB000B9FD4FF47A71B0FBF1F0FEF7CCFF0420BF
:102DC000FEF7BCFF00221146501EFEF7BBFC13B0FD
:102DD00030BD0000403802400070004010480168DB
:102DE00041F4700101600F48016841F00101016088
:102DF0000C4A00210832116002680B4B1A40026035
:102E0000031D0A4A1A60026822F480220260054803
:102E10000C30016002495806803908607047000094
:102E200088ED00E000380240FFFFF6FE103000247D
:102E30000148FFF763B8000034050020F0B50268D0
:102E4000234B244D244E254F254C4FF0804C984267
:102E500009D0604507D0A84205D0B04203D0B8429F
:102E600001D0A04204D122F0700E4A6842EA0E025C
:102E700098421BD0604519D0A84217D0B04215D057
:102E8000B84213D0A04211D0164DA8420ED0164D14
:102E9000A8420BD0154DA84208D0154DA84205D028
:102EA000144DA84202D0144DA84203D122F440751B
:102EB000CA682A4302608A68C2620A6882629842CB
:102EC00001D0A04201D10969016301214161F0BD36
:102ED000000001400004004000080040000C0040D9
:102EE000000401400040014000440140004801400E
:102EF00000180040001C00400020004010B50123D5
:102F0000046A8B409C430462036A8A401343036251
:102F100010BD002AC26801D00A4302E0C94389B249
:102F20000A40C2607047000030B5026A22F0010218
:102F30000262026A436884690D6824F073042543C1
:102F400022F002048A6822430B4CA04202D00B4CB0
:102F5000A0420BD122F00804CA6823F44073224334
:102F60004C6922F004021C438B6923434360856152
:102F700049684163026230BD000001400004014025
:102F800030B5026A22F010020262026A4368846964
:102F90000D6824F4E64444EA05248D6822F02002FA
:102FA00042EA05120D4DA84202D00D4DA8420ED1A5
:102FB000CD6822F0800242EA05124D6923F4406395
:102FC00043EA85038D6922F0400243EA85034360AA
:102FD000846149688163026230BD000000000140E5
:102FE0000004014030B5026A22F480720262036A72
:102FF0004268C46923F4007324F073050C682C4301
:103000008D6843EA05230D4DA84202D00C4DA8421D
:103010000ED1CD6823F4006343EA05234D6922F401
:10302000405242EA05128D6923F4806342EA051298
:103030004260C4614968C163036230BD0000014061
:103040000004014030B5026A22F480520262046A30
:103050004268C3690D6823F4E64343EA05238D689B
:1030600024F4005444EA0534084DA84202D0084D27
:10307000A84204D14D6922F4804242EA851242609E
:10308000C36149680164046230BD00000000014072
:103090000004014010B5806B0021C185C184FFF799
:1030A000A4F810BD0168CA6822F49072CA60016871
:1030B0004A6922F001024A61202180F83A107047E3
:1030C00010B590F83A10222901D0022010BD816875
:1030D000B1F5805F11D00169002901681FD04968EE
:1030E00001F07F03816A4A1C82620B70C18D491E08
:1030F0000904090CC18518D026E00269816A002AFA
:103100000268526805D0D2B20A80816A491C816285
:10311000ECE7C2F308020A80816A891CF7E74A6873
:10312000816A4B1C83620A70E0E70168CA6822F476
:103130009072CA6001684A6922F001024A61202146
:1031400080F83A10FFF77AF9002010BD2DE9F04120
:1031500004460068016921F44052E16811430161AD
:103160002168C86849F20C6290432369A268E56946
:103170001A4363692B431A430243CA6021684869B2
:1031800020F44072A06910434861E1696425B1F5FB
:10319000004F9748974A21684FF032083FD091423C
:1031A00001D081427CD1FEF7DBFB00EBC00101EBDB
:1031B000001061688900B0FBF1F6FEF7D1FB00EB6F
:1031C000C00101EB001061688900B0FBF1F0B0FBB9
:1031D000F5F06FF01801484306EB800108EB011091
:1031E000B0FBF5F000F0F006FEF7BAFB00EBC00113
:1031F00001EB001061688900B0FBF1F0B0FBF5F065
:1032000006EB0016FEF7ACFB00EBC00101EB001073
:1032100061688900B0FBF1F7FEF7A2FBD2E09142B2
:1032200001D081423DD1FEF79BFB00EBC00101EBD9
:10323000001061684900B0FBF1F0B0FBF5F0060149
:10324000FEF78EFB00EBC00101EB00106168490046
:10325000B0FBF1F7FEF784FB00EBC00101EB0010BF
:1032600061684900B0FBF1F0B0FBF5F06FF01801B8
:10327000484307EB800108EBC100B0FBF5F000F01C
:10328000F80006EB4006FEF76BFB00EBC00101EB1C
:10329000001061684900B0FBF1F7FEF761FB3CE00C
:1032A00055E0FEF745FB00EBC00101EB0010616843
:1032B0004900B0FBF1F0B0FBF5F00601FEF738FB7A
:1032C00000EBC00101EB001061684900B0FBF1F7B1
:1032D000FEF72EFB00EBC00101EB00106168490016
:1032E000B0FBF1F0B0FBF5F06FF01801484307EBCD
:1032F000800108EBC100B0FBF5F000F0F80006EB30
:103300004006FEF715FB00EBC00101EB0010616801
:103310004900B0FBF1F7FEF70BFB00EBC00101EB3E
:10332000001061684900B0FBF1F0B0FBF5F06FF000
:103330001801484307EB800108EBC100B0FBF5F032
:1033400000F00700216830448860BDE8F081FEF796
:10335000EFFA00EBC00101EB001061688900B0FBDF
:10336000F1F6FEF7E5FA00EBC00101EB0010616831
:103370008900B0FBF1F0B0FBF5F06FF018014843A5
:1033800006EB800108EB0110B0FBF5F000F0F00651
:10339000FEF7CEFA00EBC00101EB00106168890076
:1033A000B0FBF1F0B0FBF5F006EB0016FEF7C0FA4B
:1033B00000EBC00101EB001061688900B0FBF1F780
:1033C000FEF7B6FA00EBC00101EB0010616889005E
:1033D000B0FBF1F0B0FBF5F06FF01801484307EBDC
:1033E000800108EB0110B0FBF5F000F00F00A9E739
:1033F000001401400010014090F83910212901D03B
:10340000022070478168B1F5805F016A0BD04A1CC9
:103410000262026809785160C18C491E0904090CD6
:10342000C1840ED017E009880268C1F30801516019
:1034300001690029016A02D0491C0162ECE7891C7C
:10344000FBE70168CA6822F08002CA600068C168B0
:1034500041F04001C160002070472DE9F0419846DD
:1034600017460E460446069D1DE0681C1BD02DB174
:10347000FEF74AF8A0EB0800A84214D92068C168FA
:1034800021F4D071C1602068416921F001014161DE
:10349000202084F8390084F83A00002084F83800AD
:1034A0000320BDE8F0812068006836EA000004D0FF
:1034B0000020B842D9D00020F3E70120F9E700004E
:1034C0000148FEF793BE00007005002010B50648C5
:1034D000FEF78CFE054901200B220870BDE8104064
:1034E00003490148FEF786BFB00500201F020020F7
:1034F00014020020FEE70000014A024900F013B860
:10350000B13500082C02002002E008C8121F08C1D3
:10351000002AFAD170477047002001E001C1121F54
:10352000002AFBD170472DE9F04116460F460446AC
:10353000002503E03946B047641C6D1C2078002844
:10354000F8D12846BDE8F08100B5174900EB8000AE
:1035500080009FB0020A0A704870382213490EA8F2
:10356000FCF72EFE114890F838108DF87010A0F17D
:10357000180131F8512FADF8712089788DF873104A
:10358000C06B1D9008494FF40570CDE90C01302245
:1035900012A96846FCF714FE0DF1380C9CE80F00E8
:1035A000FFF798FB1FB000BDCC00002048030020AF
:1035B00013B54FF6FF73012269460248FEF73FFF3D
:1035C00000981CBD7005002010B50F48FDF788FA63
:1035D0000520FDF7B5FE0C48FDF7DEFA0A48FDF7B9
:1035E0006FF90A4CA08208484830FDF779FA0520A7
:1035F000FDF7A6FE04484830FDF7CEFA02484830F1
:10360000FDF75EF9E08210BD70020020040000208A
:1036100030B50C4601469FB0274800F051F82648C7
:103620002146083000F04CF8382224490EA8FCF757
:10363000C7FD224C14F8380F8DF870001F4D183D4F
:1036400035F8510FADF87100A8788DF873006068F7
:103650001D90194940F21510CDE90C01302212A934
:103660006846FCF7ADFD0DF1380C9CE80F00FFF744
:1036700031FB382211490EA8FCF7A2FD20788DF805
:1036800070002888ADF87100A8788DF87300606824
:103690001D90094940F225100831CDE90C01302276
:1036A00012A96846FCF78CFD0EAD95E80F00FFF7F8
:1036B00011FB1FB030BD0000840000204803002033
:1036C000C1710A0A82710A0C4271091601717047B0
:1036D000FB4D02202DED028B9EB06873A873042071
:1036E000E8730024EC72FDF7C7FFFFF727FBFEF736
:1036F000D7FFFEF703FFFEF727FFFEF74BFFFEF7AE
:103700006FFFFEF79DFF05F58071EE4808600846E3
:10371000FDF7DDFD00B1FEE7EC48EB490160EC4947
:10372000C0E901144FF48041C0E903414461846160
:10373000C4610462FDF7EEFE00B1FEE7E349E5482F
:10374000543108600846FEF7C5FA00B1FEE7FFF7FE
:1037500043F8FFF76BF8DD48DF49D8304FF4E13626
:103760000160C0E901640C27C460C0E904478461BA
:10377000C461FEF7C3FD00B1FEE7D948D749C0E9EF
:10378000001600218160C160C0E904178161C16138
:10379000FEF7B4FD00B1FEE7CC48D038A0F18004BC
:1037A00020631C3000F1240160635C3801631C312C
:1037B0004163FFF709FFC248818AC28A1144C1836D
:1037C000FFF772F9FFF762F8382221460EA8FCF7DE
:1037D000F7FC94F838008DF87000A4F1180030F868
:1037E000511FADF8711080788DF87300E06B1D905B
:1037F000B34940F23510B031CDE90C01302212A9A5
:103800006846FCF7DDFC0DF1380C9CE80F00FFF773
:1038100061FA00212046FDF74BFC002104F1400035
:10382000FDF746FCA648F8300278083801780838D9
:10383000007810F05DF9AB4C40F2DC55A04EF0780A
:1038400001285FD1A8480021476BF8383A687262B6
:1038500001F11403FB5C40F82130491C0829F7DB17
:10386000B2F58E7F03D0B2F5967F24D048E0016890
:10387000012902D071B103D042E04168012902D090
:10388000406888B13CE00120B07200207072307254
:1038900096A033E04068012832D10020B0720121A7
:1038A0007172307292A029E00020B0727072012013
:1038B000307290A022E00168012902D071B103D0DA
:1038C0001EE04168012902D0406888B118E001205B
:1038D000F0710020B071707187A00FE0406801287E
:1038E0000ED10020F0710121B171707183A005E04B
:1038F0000020F071B0710120707181A0FFF7FCFD14
:103900000020F0703079012871D1774900204031D2
:103910004A6BA1F5AC7100BF00F11403D35C41F810
:103920002030401C0828F7DB0868A0B1012825D00A
:1039300002282FD003283FD004284BD005285DD083
:1039400006286FD007286ED008286DD009286CD0C3
:103950000A286BD09BE04868002827D1886828BBDC
:10396000C86818BB0020F0730969012901D019B19A
:103970008DE07073022085E004203DE04868A8B91E
:10398000886898B9C86888B90022F27303201CE0DF
:1039900001207BE0486848B9886838B9C86828B908
:1039A0000022F2730869012801D018B16FE0727328
:1039B000042067E002201FE0486868BB886858BBA5
:1039C000C86848BB0022F2730620307308690128DA
:1039D00074D0B3E04868F8B98868E8B9C868D8B95D
:1039E0000022F2730869012802D020B14FE050E0B4
:1039F0007273012046E005203073C9E7486858B962
:103A0000886848B9C86838B90022F2730720307353
:103A10000869012801D078B139E0486938B1012836
:103A200007D034E015E01EE038E06CE078E0727317
:103A300009E00120B0730AE0486910B1012805D0FF
:103A400025E0012070730220B07320E0B2730220E1
:103A50001CE04868D8B98868C8B9C868B8B90320F4
:103A600068E0002012E0486888B9886878B9C868BA
:103A700068B90022F2730869012801D020B106E07C
:103A800072730520307302E00120307370730020E0
:103A90003071707BB346A8B307F087BA4868002836
:103AA000F5D188680028F2D1C8680028EFD101223A
:103AB000F27308690128D4D00028E8D17273E6E7D0
:103AC000040000200030024000580040980400200C
:103AD000801A06000008065000100140004800400F
:103AE000B00500200C01002048030020506E0A00A1
:103AF00050640A0050750A00416E000041640000E5
:103B0000417500001EE048680028C0D18868002880
:103B1000BDD1C8680028BAD10022F273327355E7CC
:103B200048680028B3D188680028B0D1C868002848
:103B3000ADD10220F0730869012892D000283FF42B
:103B40005CAFA4E79BF80F005E4650B1012807F078
:103B5000C980022807F03082032807F033820EF074
:103B6000F9BC316C7163DA46306BFFF751FDF07AC6
:103B7000B0B1574601287DD0022801F0D98703282B
:103B800002F0CE86042803F0E184052804F0D983EE
:103B9000062805F0F881072806F0558107F09AB845
:103BA0009AF80C00D04601280CD002287ED00328B9
:103BB0007DD004287CD005287BD006287AD0072821
:103BC00079D0EBE7FF484FF4805100684162FE482E
:103BD00003464642324619460FF0E4FE6420FDF7E4
:103BE000AFFBFA48427808384178083840780FF03F
:103BF0007FFF01221146F648FFF78BF940F6C41902
:103C0000FFF7E2FCB8F81420B8F81600111A00EE1D
:103C1000101A1044F8EEC00A98ED0A0A20EE800A45
:103C2000BDEEC00A10EE101AA8F81A10B8F81E203F
:103C3000801A00EE100A7218F8EEC00A98ED0B0A0E
:103C400020EE800ABDEEC00A10EE100AA8F81C0093
:103C5000831A024452420FFA82FC721A1FB2121ADD
:103C60002780891BA4F802C012B2081AA28003B2EE
:103C7000E38000E0FDE3614638460FF093FE6420E8
:103C8000FDF75EFB06F2EE26B6B24E45B8D9CD4F33
:103C90004FEA080696F9001096F901000844012839
:103CA0007DDCFFF791FCB28AF08A05E0C9E02EE2E4
:103CB00083E3FCE3FCE3FCE3111A00EE101AD6EDFB
:103CC0000A0A1044B8EEC00A20EE200ABDEEC00A6F
:103CD00010EE101A09B27183F28BD6ED0B0A801A1E
:103CE00000EE100AB8EEC00A20EE200ABDEEC00AAF
:103CF00010EE100A00B2B08396F9002096F9013058
:103D00001A44012A03DD3A68526AAA4210D8421ABC
:103D1000A2F6C41222800A1802F6C4135B42A2F66D
:103D2000C41252426380081AA280A0F6C41010E0A8
:103D3000421AA2F2DC52228001EB000C0CF2DC529F
:103D40005342ACF2DC5252426380081AA280A0F2C5
:103D5000DC50E08003B2B4F90420B4F90210B4F9E5
:103D600000000FF01FFE3868406A308392E700BF02
:103D7000FFF72AFCB18AF08AD6ED0A0A0A1A00EE89
:103D8000102A0144B8EEC00A20EE200ABDEEC00A97
:103D900010EE102A13B27383F08B081A00E02AE0A9
:103DA00000EE100AD6ED0B0AB8EEC00A20EE200A8B
:103DB000BDEEC00A10EE101AB1835A1802F57A72DD
:103DC0005242C81A0FFA82FCC3F57A72521AA0F551
:103DD0007A7000B2591A2080A1F57A71A4F802C055
:103DE00012B20BB2A280E38061460FF0DBFD3868AF
:103DF000406A308305E0DFF8D48108F130089FED98
:103E0000758B3868416AB8F90200081AFCF7FBF9AB
:103E100000EE100A21F0004110EE100A53EC182BAE
:103E2000FCF7FEF9A4D300BF0FF084FE00220121AD
:103E30006748FFF76EF80020308330707070012003
:103E4000FBE360484FF48051006841625E480346DE
:103E50004642324619460FF0A5FD6420FDF770FA80
:103E60005A48827808388178083880780FF040FE08
:103E7000012211465648FFF74CF84FF47A6900BF0B
:103E8000FFF7A2FBB8F81420B8F81600111A00EEDC
:103E9000101A1044F8EEC00A98ED0A0A20EE800AC3
:103EA000BDEEC00A10EE101AA8F81A10B8F81E20BD
:103EB000D8ED0B0A801A00EE100A7218B8EEC00A8C
:103EC00020EE200ABDEEC00A10EE100AA8F81C0071
:103ED000831A024452420FFA82FC721A121A1FB25B
:103EE000891B081A2780A4F802C012B203B2A2806C
:103EF000E380614638460FF055FD6420FDF720FA57
:103F000006F2EE26B6B24E45BAD9DFF8B89046466C
:103F100096F9000096F90110084403287EDCFFF7AB
:103F200053FBB28AF18AD6ED0A0A501A00EE100A43
:103F30001144B8EEC00A20EE200ABDEEC00A10EE11
:103F4000100A00B27083F28BD6ED0B0A891A00EECC
:103F5000101AB8EEC00A20EE200ABDEEC00A10EE1C
:103F6000101A09B2B18396F9002096F901301A446B
:103F7000022A06DDD9F800305F6AAF4212D8032A60
:103F800050D10A1AA2F57A622280421802F57A62AA
:103F900052426280C0F57A62521A401AA280A0F59D
:103FA0007A603EE0032A3DD15A6AAA4222D95F6A6A
:103FB00040F6B83297421DD80A1AA2F6B8322280CB
:103FC00042180BE03405002018FCFFFFE40000203D
:103FD000000C0040000000000000394002F6B83339
:103FE0005B42A2F6B83252426380401AA280A0F629
:103FF000B83016E05B6A40F6B832934212D30A1A20
:10400000A2F5FA622280421802F5FA6252426280F8
:10401000C0F5FA62521AA280401A00E053E0A0F5FF
:10402000FA60E080B4F90630B4F90420B4F9021063
:10403000B4F900000FF0B6FCD9F80000406A3083F4
:1040400066E700BFFFF7C0FAB18AF08AD6ED0A0A28
:104050000A1A00EE102A0144B8EEC00A20EE200A27
:10406000BDEEC00A10EE102A13B27383F08BD6EDAA
:104070000B0A081A00EE100AB8EEC00A20EE200A59
:10408000BDEEC00A10EE101AB1835A1802F57A720A
:104090005242C81A0FFA82FCC3F57A72521AA0F57E
:1040A0007A7000B2591A2080A1F57A71A4F802C082
:1040B00012B20BB2A280E38061460FF073FC386845
:1040C000406A308304E0DFF82C841FED3E8B4F46BE
:1040D0003868406AB8F90410401AFCF794F800EE0A
:1040E000100A21F0004110EE100A53EC182BFCF7D7
:1040F00097F8A7D30FF01EFD00220121FE48FEF71E
:1041000008FF0020308330707070022098E6FB4971
:104110004FF4805009684862F948034646423246E7
:1041200019460FF03FFC6420FDF70AF9F1483038DA
:10413000C2780838C1780838C0780FF0D9FC01225D
:104140001146ED48FEF7E5FE4FF47A69FFF73CFAB9
:10415000B8F81400B8F81610421A00EE102A0844F5
:10416000F8EEC00A98ED0A0A20EE800ABDEEC00AF9
:1041700010EE103AA8F81A30B8F81E10401A00EEE7
:10418000100AF118F8EEC00A98ED0B0A20EE800A2A
:10419000BDEEC00A10EE100AA8F81C00421A17B2B1
:1041A0000144F21A121A49429B1B278009B2181ABD
:1041B000618012B203B2A280E38038460FF0F2FBB6
:1041C0006420FDF7BDF806F2EE26B6B24E45BDD925
:1041D000DFF828934FEA080696F9000096F90110D7
:1041E000084405287EDCFFF7EFF9B28AF08AD6EDA5
:1041F0000A0A111A00EE101A1044B8EEC00A20EE96
:10420000200ABDEEC00A10EE101A09B27183F28BBB
:10421000D6ED0B0A801A00EE100AB8EEC00A20EEA6
:10422000200ABDEEC00A10EE100A00B2B08396F963
:10423000002096F901301344042B06DDD9F8002044
:10424000576AAF4212D8052B41D1421AA2F57A62C1
:1042500022800A1802F57A6252426280C1F57A62BF
:10426000121A081AA280A0F57A602FE0052B2ED131
:10427000536AAB4215D9576A40F6B8339F4210D8FB
:10428000421AA2F6B83222800A1802F6B8335B420C
:10429000A2F6B83252426380081AA280A0F6B83063
:1042A00014E0536A40F6B832934210D3421AA2F592
:1042B000FA6222800A1802F5FA6252426280C1F55F
:1042C000FA62121A081AA280A0F5FA60E080B4F926
:1042D0000630B4F90420B4F90210B4F900000FF06C
:1042E00061FB00E045E0D9F80000406A308373E7E5
:1042F000FFF76AF9B18AF08AD6ED0A0A0A1A00EEC7
:10430000102A0844B8EEC00A20EE200ABDEEC00A0A
:1043100010EE102A13B27383F18BD6ED0B0A401AFC
:1043200000EE100AB8EEC00A20EE200ABDEEC00A68
:1043300010EE101AB1835A1802F57A725242C81A56
:104340000FFA82FCC3F57A72521AA0F57A7000B2A5
:10435000591A2080A1F57A71A4F802C012B20BB2EA
:10436000A280E38061460FF01DFB3868406A30830D
:1043700004E0DFF880811FEDE98B4F463868416A21
:10438000B8F90600081AFBF73EFF00EE100A21F00C
:10439000004110EE100A53EC182BFBF741FFA7D396
:1043A0000FF0C8FB002201215348FEF7B2FD0020A8
:1043B000308330707070032042E550494FF48050D4
:1043C000096848624E4803464642324619460FF095
:1043D000E9FA6420FCF7B4FF46483038027908381F
:1043E0000179083800790FF083FB01221146424819
:1043F000FEF78FFD4FF47A69FFF7E6F8B8F814106E
:10440000B8F81600D8ED0A0A0A1A00EE102A084475
:10441000B8EEC00A20EE200ABDEEC00A10EE107AF7
:10442000A8F81A70B8F81E10D8ED0B0A401A00EE62
:10443000100AF119F21BB8EEC00ABF1B20EE200AC9
:10444000BDEEC00A10EE103AA8F81C30581A1944F4
:10445000D21A00B24942208009B2618012B2FB1A1E
:10446000A2801BB2E3800FF09DFA6420FCF768FF86
:1044700000E0FDE306F2EE26B6B24E45BCD9DFF809
:104480007C90464696F9000096F9011008440728EA
:104490007EDCFFF799F8B28AF08A111A00EE101A42
:1044A000F8EEC00A96ED0A0A20EE800A02E0EAE081
:1044B0003FE2A2E3BDEEC00A104410EE101A09B2AA
:1044C0007183F28B801A00EE100AF8EEC00A96EDA6
:1044D0000B0A20EE800ABDEEC00A10EE100A00B2F0
:1044E000B08396F9003096F901201A44062A10DDAF
:1044F00008E0000014010020000C004034050020FA
:1045000018FCFFFFD9F800305F6AAF4212D8072AC3
:1045100043D1421AA2F57A6222800A1802F57A6221
:1045200052426280C1F57A62121A081AA280A0F57E
:104530007A6031E0072A30D15A6AAA4215D95F6AF7
:1045400040F6B832974210D8421AA2F6B83222800A
:104550000A1802F6B8335B42A2F6B83252426380C0
:10456000081AA280A0F6B83016E05B6A40F6B832AE
:10457000934212D3421AA2F5FA6222800A1802F577
:10458000FA6252426280C1F5FA62121AA28000E019
:1045900054E0081AA0F5FA60E080B4F90630B4F9E6
:1045A0000420B4F90210B4F900000FF0FBF9D9F8B7
:1045B0000000406A308365E7FFF706F8B18AF08AA9
:1045C000D6ED0A0A0A1A00EE102A0844B8EEC00A0C
:1045D00020EE200ABDEEC00A10EE102A13B273833B
:1045E000F18BD6ED0B0A401A00EE100AB8EEC00AA5
:1045F00020EE200ABDEEC00A10EE101AB1835A1840
:1046000002F57A725242C81A0FFA82FCC3F57A7226
:10461000521AA0F57A7000B2591A2080A1F57A7169
:10462000A4F802C012B20BB2A280E38061460FF080
:10463000B9F93868406A308305E0DDE2DFF8F883D5
:104640009FEDFE8B4F463868406AB8F90810401A53
:10465000FBF7D9FD00EE100A21F0004110EE100A20
:1046600053EC182BFBF7DCFDA6D300BF0FF062FA6A
:1046700000220121F348FEF74CFC0020308330700B
:1046800070700420B8E2F0494FF480500968486225
:10469000EE4803464642324619460FF083F964203D
:1046A000FCF74EFEE4483038427908380178083883
:1046B00040790FF01DFA01221146E248FEF729FC6D
:1046C0004FF47A69FEF780FFB8F81410B8F81600B6
:1046D000D8ED0A0A0A1A00EE102A0844B8EEC00AF9
:1046E00020EE200ABDEEC00A10EE103AA8F81A30EB
:1046F000B8F81E10D8ED0B0A401A00EE100AF11897
:10470000F71AB8EEC00A9B1B20EE200ABDEEC00AC5
:1047100010EE102AA8F81C20501A1144BF1A00B23B
:104720004942208009B23FB29A1A618013B2A78031
:10473000E3803A460FF036F96420FCF701FE06F2FA
:10474000EE26B6B24E45BDD9DFF8FC924FEA080618
:1047500096F9000096F90110084409287EDCFEF75E
:1047600033FFB28AF38AD6ED0A0AD01A00EE100A95
:104770001A44B8EEC00A20EE200ABDEEC00A10EEC0
:10478000100A01B27183F08B101A00EE100AF8EED5
:10479000C00A96ED0B0A20EE800ABDEEC00A10EEAC
:1047A000100A00B2B08396F9002096F90130134444
:1047B000082B06DDD9F80020576AAF4212D8092B22
:1047C00041D1421AA2F57A6222800A1802F57A6271
:1047D00052426280C1F57A62121A081AA280A0F5CC
:1047E0007A602FE0092B2ED1536AAB4215D9576A54
:1047F00040F6B8339F4210D8421AA2F6B83222804F
:104800000A1802F6B8335B42A2F6B832524263800D
:10481000081AA280A0F6B83014E0536A40F6B83205
:10482000934210D3421AA2F5FA6222800A1802F5C6
:10483000FA6252426280C1F5FA62121A081AA28024
:10484000A0F5FA60E080B4F90630B4F90420B4F9B8
:104850000210B4F900000FF0A5F800E045E0D9F827
:104860000000406A308373E7FEF7AEFEB08AF18A3B
:10487000D6ED0A0A421A00EE102A0844B8EEC00A21
:1048800020EE200ABDEEC00A10EE102A13B2738388
:10489000F18BD6ED0B0A401A00EE100AB8EEC00AF2
:1048A00020EE200ABDEEC00A10EE101AB1835A188D
:1048B00002F57A725242C81A0FFA82FCC3F57A7274
:1048C000521AA0F57A7000B2591A2080A1F57A71B7
:1048D000A4F802C012B20BB2A280E38061460FF0CE
:1048E00061F83868406A308304E0DFF84C819FED5E
:1048F000538B4F463868416AB8F90A00081AFBF72B
:1049000082FC00EE100A21F0004110EE100A53EC78
:10491000182BFBF785FCA7D30FF00CF9002201211F
:104920004848FEF7F6FA002030833070707005209A
:1049300062E145494FF480500968486243480346A4
:104940004642324619460FF02DF86420FCF7F8FC79
:1049500039483038827908388179083880790FF001
:10496000C7F8012211463748FEF7D3FA4FF47A69A7
:10497000FEF72AFEB8F81410B8F81600D8ED0A0AA7
:104980000A1A00EE102A0844B8EEC00A20EE200AE7
:10499000BDEEC00A10EE103AA8F81A30B8F81E1092
:1049A000F218401A00EE100AF8EEC00A98ED0B0A51
:1049B00020EE800ABDEEC00A10EE101AA8F81C10F6
:1049C000881A0A44524217B2F21A521A00B29B1BBA
:1049D0002080591A678012B20BB2A280E380394658
:1049E0000EF0E0FF6420FCF7ABFC06F2EE26B6B258
:1049F0004E45BDD9DFF850904FEA080696F9000001
:104A000096F90110084406287EDCFEF7DDFDB08A29
:104A1000F28A811A00EE101A0244F8EEC00A96EDEE
:104A20000A0A20EE800ABDEEC00A10EE101A09B282
:104A30007183F08B101A0BE01401002000000000BD
:104A400000003940000C00403405002018FCFFFF36
:104A500000EE100AD6ED0B0AB8EEC00A20EE200ACE
:104A6000BDEEC00A10EE100A00B2B08396F9003015
:104A700096F901201A44052A06DDD9F800305F6A4C
:104A8000AF4212D8062A43D1421AA2F57A62228096
:104A90000A1802F57A6252426280C1F57A62121AED
:104AA000081AA280A0F57A6031E0062A30D15A6A4D
:104AB000AA4215D95F6A40F6B832974210D8421A16
:104AC000A2F6B83222800A1802F6B8335B42A2F688
:104AD000B83252426380081AA280A0F6B83016E0BD
:104AE0005B6A40F6B832934212D3421AA2F5FA62D8
:104AF00022800A1802F5FA6252426280C1F5FA6217
:104B0000121AA280081A00E053E0A0F5FA60E080D3
:104B1000B4F90630B4F90420B4F90210B4F9000075
:104B20000EF040FFD9F80000406A308366E700BF0E
:104B3000FEF74AFDB18AF08AD6ED0A0A0A1A00EE9B
:104B4000102A0844B8EEC00A20EE200ABDEEC00AC2
:104B500010EE102A13B27383F18BD6ED0B0A401AB4
:104B600000EE100AB8EEC00A20EE200ABDEEC00A20
:104B700010EE101AB1835A1802F57A725242C81A0E
:104B80000FFA82FCC3F57A72521AA0F57A7000B25D
:104B9000591A2080A1F57A71A4F802C012B20BB2A2
:104BA000A280E38061460EF0FDFE3868406A3083E3
:104BB00004E0DFF82C841FED5F8B4F463868416AB4
:104BC000B8F90C00081AFBF71EFB00EE100A21F0E2
:104BD000004110EE100A53EC182BFBF721FBA7D372
:104BE0000EF0A8FF00220121FE48FEF792F90020F6
:104BF000308330707070062011E3FB494FF4805011
:104C000009684862F94803464642324619460EF0A2
:104C1000C9FE6420FCF794FBF1483038C2790838AB
:104C2000C1790838C0790EF063FF01221146ED48C2
:104C3000FEF76FF94FF47A69FEF7C6FCB8F8141066
:104C4000B8F81600D8ED0A0A0A1A00EE102A08442D
:104C5000B8EEC00A20EE200ABDEEC00A10EE103AEF
:104C6000A8F81A30B8F81E10401A00EE100A00E03A
:104C70002DE1F8EEC00A98ED0B0AF11820EE800A3B
:104C8000BDEEC00A10EE100AA8F81C00421A17B2B6
:104C90000144F21A121A49429B1B278009B2181AC2
:104CA000618012B203B2A280E38038460EF07AFE31
:104CB0006420FCF745FB06F2EE26B6B24E45BBD9A2
:104CC000DFF824934FEA080696F9000096F90110E0
:104CD000084405287DDCFEF777FCB28AF08AD6ED21
:104CE0000A0A111A00EE101A0244B8EEC00A20EEA9
:104CF000200ABDEEC00A10EE101A09B27183F08BC3
:104D0000D6ED0B0A101A00EE100AB8EEC00A20EE1B
:104D1000200ABDEEC00A10EE100A00B2B08396F968
:104D2000002096F901301A44042A10DC421AA2F538
:104D30007A6222800A1802F57A6252426280C1F5D4
:104D40007A62121A081AA280A0F57A6049E0052A50
:104D500048D1D9F80020576A4FF47A739F4210D295
:104D6000421AA2F6B83222800A1802F6B8335B4221
:104D7000A2F6B83252426380081AA280A0F6B83078
:104D80002FE0576A9F4215D3576A40F6C4139F42DB
:104D900010D8421AA2F2DC5222800A1802F2DC5326
:104DA0005B42A2F2DC5252426380081AA280A0F257
:104DB000DC5016E0536A40F6C412934212D3421AF2
:104DC000A2F57A7222800A1802F57A725242628043
:104DD00000E058E0C1F57A72121A081AA280A0F514
:104DE0007A70E080B4F90630B4F90420B4F9021006
:104DF000B4F900000EF0D6FDD9F80000406A308307
:104E000062E700BFFEF7E0FBB18AF08AD6ED0A0A3E
:104E10000A1A00EE102A0844B8EEC00A20EE200A52
:104E2000BDEEC00A10EE102A13B27383F18BD6EDDB
:104E30000B0A401A00EE100AB8EEC00A20EE200A53
:104E4000BDEEC00A10EE101AB1835A1802F57A723C
:104E50005242C81A0FFA82FCC3F57A72521AA0F5B0
:104E60007A7000B2591A2080A1F57A71A4F802C0B4
:104E700012B20BB2A280E38061460EF093FD386857
:104E8000406A308304E0DFF858819FED598B4F462C
:104E90003868406AB8F90E10401AFBF7B4F900EE12
:104EA000100A21F0004110EE100A53EC182BFBF70A
:104EB000B7F9A7D30EF03EFE002201214948FEF7C4
:104EC00028F800203083307070700720A7E1387B0D
:104ED00068B102287ED003287DD004287CD0052824
:104EE0007BD006287AD0072879D005F0F3BE786CFD
:104EF000322825DB382240490EA8FBF761F93E48ED
:104F000090F838108DF87010A0F1180131F8512F79
:104F1000ADF8712089788DF87310C06B1D90304901
:104F200040F235106039CDE90C01302212A96846F3
:104F3000FBF746F90DF1380C9CE80F00FDF7CAFEAF
:104F400064235842024611460EF02CFDFEF73CFB4E
:104F50009FED278BB84601E0FEF736FBB8F814004A
:104F6000B8F81610401AFBF73DF900EE100A21F0D0
:104F7000004110EE100A53EC182BFBF751F9EBD35C
:104F800019490020096848624FF47A763346194679
:104F9000724208460EF006FD6420FCF7D1F9104875
:104FA0003038027808380178083800780EF0A0FD13
:104FB000012211460B48FDF7ACFF40F6C41900BFB3
:104FC000FEF702FBB8F81410B8F816000A1A00EE43
:104FD000102A13E025E1C1E160E2F5E296E3FCE38B
:104FE00014010020000C00403405002018FCFFFFD5
:104FF000000000000000394048030020B8EEC00A5D
:10500000D8ED0A0A084420EE200ABDEEC00A10EED0
:10501000102AA8F81A20B8F81E10D8ED0B0A401A6A
:1050200000EE100AB11AB8EEC00A20EE200ABDEE5A
:10503000C00A10EE100AA8F81C000B181FB2B31813
:10504000091A1A18278009B25242181A618012B23E
:1050500003B2A280E38038460EF0A4FC6420FCF783
:105060006FF906F2EE26B6B24E45A9D9FE4F464676
:1050700096F9001096F90100084401287EDCFEF73D
:10508000A3FAB28AF08AD6ED0A0A111A00EE101AB3
:105090001044B8EEC00A20EE200ABDEEC00A10EEA1
:1050A000101A09B27183F28BD6ED0B0A801A00EE4A
:1050B000100AB8EEC00A20EE200ABDEEC00A10EEBB
:1050C000100A00B2B08396F9002096F901301A4414
:1050D000002A09DDD7F80080D8F824C040F6B8339C
:1050E0009C4512D3012A2BD1421A02F6C412228007
:1050F0000A18A2F6C4135B4202F6C412524263803D
:10510000081AA28000F6C41019E0012A18D1D8F8B4
:105110002420AA4214D9D8F824209A4210D8421A3E
:1051200002F2DC5222800A18A2F2DC535B4202F245
:10513000DC5252426380081AA28000F2DC50E08008
:10514000B4F90630B4F90420B4F90210B4F900003F
:105150000EF028FC3868406A308389E7FEF734FA9D
:10516000B18AF08AD6ED0A0A0A1A00EE102AB8EEC1
:10517000C00A20EE200ABDEEC00A00E030E010EECA
:10518000102A08440FFA82FCA6F81AC0F18BD6ED5B
:105190000B0A401A00EE100ACCF57A71B8EEC00A7C
:1051A00020EE200ABDEEC00A10EE103AB383C818F4
:1051B0000CEB0302C91A00B202F57A72208009B220
:1051C0005242ACEB0303618012B203F57A73A28002
:1051D0001BB2E3800EF0E6FB3868406A308301E0E2
:1051E000DFF888823868416AB8F91000081AFBF7BE
:1051F0000AF800EE100A21F0004110EE100A53ECFC
:10520000182BFBF70DF8A9D30EF094FC0022012116
:105210009748FDF77EFE0020308330707070F0728A
:1052200063E664235842024611460EF0BBFBFEF7CC
:10523000CBF91FED918B01E0FEF7C6F9B88AF98A28
:10524000401AFAF7CFFF00EE100A21F0004110EEED
:10525000100A53EC182BFAF7E3FFEDD3824E4FF40C
:1052600080503168486283480346424219460EF036
:1052700099FB6420FCF764F87C4830388278083861
:105280008178083880780EF033FCDFF8E491012251
:1052900011464846FDF73DFE0DF0CCFCDFF8CC8111
:1052A00040E000BFFEF790F9B88AF98AD7ED0A0A04
:1052B000421A00EE102A0144B8EEC00A20EE200A7D
:1052C000BDEEC00A10EE102A13B27B83F88BD7ED27
:1052D0000B0A081A00EE100AC3F57A72B8EEC00A7B
:1052E00020EE200ABDEEC00A10EE100AB883C11AE3
:1052F000A1F57A710FFA81FC1918121A01F57A7169
:105300004942181AA4F800C009B2A0F57A70618069
:1053100012B203B2A280E38060460EF043FB306815
:10532000406A38833068406AB8F91410401AFAF7B6
:105330006AFF00EE100A21F0004110EE100A53EC53
:10534000182BFAF76DFFADD30EF0F4FB002201210C
:105350004846FDF7DEFD002001F0B8BD6423584249
:10536000024611460EF01EFBFEF72EF91FEDE08BF4
:1053700002E000BFFEF728F9B88AF98A401AFAF766
:1053800031FF00EE100A21F0004110EE100A53EC3C
:10539000182BFAF745FFEDD3334E4FF480503168A8
:1053A000486234480346424219460EF0FBFA642034
:1053B000FBF7C6FF2D483038C2780838C178083866
:1053C000C0780EF095FBDFF8A89001221146484600
:1053D000FDF79FFD0DF004FDDFF8908040E000BF79
:1053E000FEF7F2F8B88AF98AD7ED0A0A421A00EEF7
:1053F000102A0144B8EEC00A20EE200ABDEEC00A11
:1054000010EE102A13B27B83F88BD7ED0B0A081A23
:1054100000EE100AC3F57A72B8EEC00A20EE200A38
:10542000BDEEC00A10EE100AB883C11AA1F57A7158
:105430000FFA81FC1918121A01F57A714942181AEB
:10544000A4F800C009B2A0F57A70618012B203B26C
:10545000A280E38060460EF0A5FA3068406A388387
:105460003068416A08E00000340500201401002083
:10547000000C004018FCFFFFB8F91600081AFAF7F4
:10548000C2FE00EE100A21F0004110EE100A53ECAB
:10549000182BFAF7C5FE85F0A381A1E764235842D3
:1054A000024611460EF07EFAFEF78EF89FEDFE8B57
:1054B00002E000BFFEF788F8B88AF98A401AFAF7C6
:1054C00091FE00EE100A21F0004110EE100A53EC9C
:1054D000182BFAF7A5FEEDD3F54E4FF48050316846
:1054E0004862F4480346424219460EF05BFA6420D3
:1054F000FBF726FFF048027908380179083800796F
:105500000EF0F6FADFF8B493012211464846FDF793
:1055100000FD0DF03FFDDFF8A08308F130083FE00B
:10552000FEF752F8B98AF88AD7ED0A0A0A1A00EE8D
:10553000102A0144B8EEC00A20EE200ABDEEC00ACF
:1055400010EE102A13B27B83F88BD7ED0B0A081AE2
:1055500000EE100AC3F57A72B8EEC00A20EE200AF7
:10556000BDEEC00A10EE100AB883C11AA1F57A7117
:105570000FFA81FC1918121A01F57A714942181AAA
:10558000A4F800C009B2A0F57A70618012B203B22B
:10559000A280E38060460EF005FA3068406A3883E6
:1055A0003068416AB8F91800081AFAF72CFE00EEC4
:1055B000100A21F0004110EE100A53EC182BFAF7F4
:1055C0002FFE85F0B981ABE76423584202461146AD
:1055D0000EF0E8F9FDF7F8FF9FEDB38B02E000BF96
:1055E000FDF7F2FFB88AF98A401AFAF7FBFD00EEE0
:1055F000100A21F0004110EE100A53EC182BFAF7B4
:105600000FFEEDD3AA4E4FF4805031684862A9488E
:105610000346424219460EF0C5F96420FBF790FE9E
:10562000A548427908384179083840790EF060FA87
:10563000DFF88892012211464846FDF76AFC0DF01A
:1056400083FDDFF8748208F130083FE0FDF7BCFF0E
:10565000B98AF88AD7ED0A0A0A1A00EE102A01441C
:10566000B8EEC00A20EE200ABDEEC00A10EE102AE5
:1056700013B27B83F88BD7ED0B0A081A00EE100AE1
:10568000C3F57A72B8EEC00A20EE200ABDEEC00A59
:1056900010EE100AB883C11AA1F57A710FFA81FCD5
:1056A0001918121A01F57A714942181AA4F800C0A3
:1056B00009B2A0F57A70618012B203B2A280E380D1
:1056C00060460EF06FF93068406A38833068416A8E
:1056D000B8F91A00081AFAF796FD00EE100A21F040
:1056E000004110EE100A53EC182BFAF799FDADD3D8
:1056F0000EF020FA002201214846FDF70AFC0020A6
:10570000388338707870052005F0E3BA6423584276
:10571000024611460EF046F9FDF756FF9FED628BEB
:1057200002E000BFFDF750FFB88AF98A401AFAF785
:1057300059FD00EE100A21F0004110EE100A53EC62
:10574000182BFAF76DFDEDD3594E4FF480503168A8
:10575000486258480346424219460EF023F9642035
:10576000FBF7EEFD54488279083881790838807952
:105770000EF0BEF9DFF84491012211464846FDF7CC
:10578000C8FB0DF02DFBDFF8308108F1300841E057
:10579000FDF71AFFB88AF98A421A00EE102A084467
:1057A000F8EEC00A97ED0A0A20EE800ABDEEC00AA4
:1057B00010EE102A13B27B83F98BD7ED0B0A401A37
:1057C00000EE100AB8EEC00A20EE200ABDEEC00AB4
:1057D00010EE100AB883C11A00E034E0A1F57A7126
:1057E0000FFA81FC1918C3F57A72121A01F57A7151
:1057F0004942181AA4F800C009B2A0F57A70618075
:1058000012B203B2A280E38060460EF0CBF830689B
:10581000406A38833068416AB8F91C00081AFAF700
:10582000F2FC00EE100A21F0004110EE100A53ECD9
:10583000182BFAF7F5FCABD30EF07CF9002201210E
:10584000484605F03FBA64235842024611460EF01E
:10585000A9F8FDF7B9FE9FED148B01E0FDF7B4FE4A
:10586000B88AF98AB846401AFAF7BCFC00EE100A6A
:1058700021F0004110EE100A53EC182BFAF7D0FC7F
:10588000ECD30B494FF4805009684862094803463D
:105890004642324619460EF085F86420FBF750FD6B
:1058A0000548C27908380BE00000000000003940CC
:1058B0003405002018FCFFFFE4000020000C00402D
:1058C000C1790838C0790EF013F901221146FE485B
:1058D000FDF71FFB40F6AC59FDF776FEB8F8142033
:1058E000B8F81600111A00EE101A0244F8EEC00AB9
:1058F00098ED0A0A20EE800ABDEEC00A10EE101ADA
:10590000A8F81A10B8F81E00101A00EE100A721843
:10591000F8EEC00A98ED0B0A20EE800ABDEEC00A30
:1059200010EE100AA8F81C00831A024452420FFA23
:1059300082FC721A121A1FB2891B081A2780A4F857
:1059400002C012B203B2A280E380614638460EF074
:1059500029F86420FBF7F4FC06F2EE26B6B24E45B9
:10596000BAD9DFF86893464696F9000096F9011017
:10597000084403287EDCFDF727FEB28AF08AD6EDC4
:105980000A0A111A00EE101A1044B8EEC00A20EEEE
:10599000200ABDEEC00A10EE101A09B27183F28B14
:1059A000D6ED0B0A801A00EE100AB8EEC00A20EEFF
:1059B000200ABDEEC00A10EE100A00B2B08396F9BC
:1059C000002096F901301A44022A06DDD9F8003089
:1059D0005F6AAF4212D8032A41D1421AA2F6AC52F2
:1059E00022800B1803F6AC5252426280A3F6AC52EE
:1059F0005242081AA280A0F6AC502FE0032A2ED102
:105A00005A6AAA4215D95F6A40F6B832974210D84E
:105A1000421AA2F6C41222800A1802F6C4135B428C
:105A2000A2F6C41252426380081AA280A0F6C410E3
:105A300014E05B6A40F6B832934210D3421AA2F5E2
:105A4000AF6222800A1802F5AF6252426280C1F54D
:105A5000AF62121A081AA280A0F5AF60E080B4F914
:105A60000630B4F90420B4F90210B4F900000DF0C6
:105A700099FF00E045E0D9F80000406A308373E701
:105A8000FDF7A2FDB18AF08AD6ED0A0A0A1A00EEE5
:105A9000102A0844B8EEC00A20EE200ABDEEC00A63
:105AA00010EE102A13B27383F18BD6ED0B0A401A55
:105AB00000EE100AB8EEC00A20EE200ABDEEC00AC1
:105AC00010EE101AB1835A1802F57A725242C81AAF
:105AD0000FFA82FCC3F57A72521AA0F57A7000B2FE
