:020000040800F2
:10000000C80900209D010008352C0008FB240008C9
:10001000892800081D0500087D3400080000000044
:10002000000000000000000000000000592C000843
:100030003D07000800000000572C0008B52C000800
:10004000B7010008B7010008B7010008B7010008B0
:10005000B7010008B70100083F0700084107000882
:1000600045070008B7010008B7010008B7010008FC
:10007000B7010008B7010008B7010008B701000880
:10008000B7010008B7010008C50300085D050008B6
:10009000210500084505000851050008B7010008C2
:1000A000B7010008B7010008B7010008B701000850
:1000B000B7010008B7010008B7010008B701000840
:1000C000B7010008B7010008B7010008B701000830
:1000D000B701000849340008B7010008553400088A
:1000E000B7010008B7010008B7010008B701000810
:1000F000B7010008B7010008B7010008B701000800
:10010000B7010008B7010008B92D0008B7010008C1
:10011000B7010008B7010008B7010008B7010008DF
:10012000B7010008B7010008B7010008B7010008CF
:10013000B7010008B7010008B7010008A5050008CD
:10014000690500088D05000899050008B701000839
:10015000B7010008B7010008B7010008B70100089F
:10016000B7010008B7010008B7010008B70100088F
:10017000B7010008B7010008B7010008000000003F
:10018000B7010008B7010008DFF80CD000F0BEF896
:100190000048004759360008C80900200648804733
:1001A00006480047FEE7FEE7FEE7FEE7FEE7FEE75C
:1001B000FEE7FEE7FEE7FEE7652D0008890100087F
:1001C00040EA01039B0703D009E008C9121F08C0D9
:1001D000042AFAD203E011F8013B00F8013B521E59
:1001E000F9D270470EB5C10F80EAE0700844CA0723
:1001F000002140F233438DE80E000A460B4600F022
:1002000036F803B000BD0EB540F233410291002133
:10021000CDE900110A460B4600F029F803B000BDF5
:1002200030B5041E71F1000404DB4FF0004440427D
:1002300064EB0101141E73F1000405DB1C464FF052
:100240000043524263EB0403994208BF904230BD21
:1002500010B5141E73F1000408DA401C41F10001CE
:1002600092185B411A4301D120F0010010BD2DE925
:10027000F04D92469B4611B1B1FA81F202E0B0FA1C
:1002800080F22032904600F053F804460F4640EAD0
:100290000A0041EA0B0153465A46084313D011465F
:1002A00053EA010019D0C8F14002504600F04FF85F
:1002B00005460E4650465946424600F039F8084376
:1002C00005D0012004E020463946BDE8F08D00202D
:1002D000054346EAE0762C4337430A986305E40A6F
:1002E000A0EB08000022FD0A44EA47540A3002D578
:1002F00000200146E9E7010510196941DDE90845DB
:1003000000196941BDE8F04DA2E70000064C074D19
:1003100006E0E06840F0010394E8070098471034D5
:10032000AC42F6D3FFF734FF643101088431010891
:10033000202A04DB203A00FA02F1002070479140A5
:10034000C2F1200320FA03F3194390407047202A9A
:1003500004DB203A21FA02F00021704721FA02F36F
:10036000D040C2F12002914008431946704770B551
:100370008C1810F8015B15F0070301D110F8013B50
:100380002A1106D110F8012B03E010F8016B01F8D7
:10039000016B5B1EF9D12B0705D40023521E0DD42F
:1003A00001F8013BFAE710F8013BCB1A921C03E07D
:1003B00013F8015B01F8015B521EF9D5A142D8D3B5
:1003C000002070BD10B5054800F07DFA044800F02B
:1003D0007AFABDE81040034800F075BA44020020E4
:1003E0008C020020D40200204A4910B5D1F8042321
:1003F00022F44032C1F80423D1F8042343681A439D
:10040000C1F8042301684A6822F480724A600168D6
:100410004A68036942EA03224A6001684A6822F096
:1004200040724A6001684A6883681A434A600168FA
:100430008A6822F400628A6001688A68C3681A4385
:100440008A60816A6FF07062D14201688A6822F026
:1004500070628A6001688A680CD0836A1A438A6075
:1004600001688A6822F040528A6001688A68C36A1B
:100470001A4301E022F040528A6001688A6822F043
:1004800002028A6001688A68836942EA43028A60DC
:10049000016A002901684A6815D042F400624A6086
:1004A00001684A6822F460424A6001684B684FF470
:1004B0006044426A94FAA4F4B4FA84F4521EA2404E
:1004C00013434B6002E022F400624A600168CA6A8A
:1004D00022F47002CA620168CA6A838B0E4C04EB74
:1004E00003531A43CA6201688A6822F400728A6060
:1004F00001688A68036B42EA43228A6001688A685D
:1005000022F480628A6001688A68406942EA802039
:10051000886010BD002001400000F0FFFEE70000F1
:1005200010B5064800F0CAFB054901200870BDE877
:1005300010400021014800F0BBBD00001C0300205A
:1005400007000020014800F0B9BB00001C03002098
:10055000014800F0B3BB00001C030020014800F07C
:10056000ADBB00001C03002010B5064800F0A6FB40
:10057000054901200870BDE810400021014800F045
:1005800097BD00005C03002008000020014800F037
:1005900095BB00005C030020014800F08FBB000009
:1005A0005C030020014800F089BB00005C030020D0
:1005B00010B54FF4D872036802EB01129B5813F088
:1005C0000404436B9C600468436BA45856D0E40851
:1005D0005C6003689A58436B02F00202DA604FF4E1
:1005E000DA72036802EB01129B58446B03F00F03AD
:1005F0002361436B196203689A58436BC2F3072265
:10060000DA614FF4DC72036802EB01129B58446B11
:10061000237503689B58446B1B0A637503689B58DA
:10062000446B1B0CA37503689A58436B120EDA7562
:100630004FF4DE72036802EB01129B58446B237681
:1006400003689B58446B1B0A637603689B58446B92
:100650001B0CA37603689A58436B120EDA7620229D
:10066000002901680DD00A6101684A6922F0100270
:100670004A6190F83810222909D021E0640D1C60ED
:10068000A7E7CA6001684A6922F00202F0E7016840
:100690004A6922F480724A6101684A6922F4007250
:1006A0004A6101684A6922F480624A6101684A69C4
:1006B00022F400624A6101684A6922F400424A61F8
:1006C00090F83810322907D05FF0010180F8381017
:1006D00000F031FD002010BD1221F7E710B50168D0
:1006E0004A6922F001024A6190F83810122918D1A3
:1006F00001684A6922F480724A6101684A6922F4F9
:1007000000724A6101684A6922F480624A610168A4
:100710004A6922F400624A6101684A6922F400428F
:100720004A6190F83810322906D0012180F838103B
:1007300000F0CCFD002010BD2221F7E77047704784
:100740007047000006480168490708D50421016088
:1007500004490878401C0870042000F0FCBD704774
:10076000143C0140F40100207047000078B50024DB
:10077000009490F83C20012A19D0012280F83C20F6
:100780000A6807230568092A13D9EE680A3A02EBBA
:10079000420293409E43EE600B788A680A3B03EB6B
:1007A00043039A400368DD682A43DA6010E00220C0
:1007B00078BD2E6902EB420293409E432E610A7877
:1007C0008B6802EB42029340026815692B43136168
:1007D0004A681F23072A13D205686E6B521E02EB6C
:1007E000820293409E436E630B790A885B1E92B22D
:1007F00003EB83039A4003685D6B2A435A6327E047
:1008000005680D2A12D22E6BD21F02EB8202934092
:100810009E432E630B790A88DB1F92B203EB83039E
:100820009A4003681D6B2A431A6311E0EE6A0D3A81
:1008300002EB820293409E43EE620B790A880D3BE5
:1008400092B203EB83039A400368DD6A2A43DA62BB
:10085000174A0368934208D10B68122B05D1D2F8CE
:10086000043343F48003C2F80433036893421AD17B
:100870000B68102B01D0112B15D1D2F8043343F49F
:100880000003C2F80433096810290CD109490A4A47
:100890000968B1FBF2F101EB8101490000E0491E5A
:1008A00000910029FBD180F83C40002078BD000079
:1008B00000200140FC01002040420F0070477047BB
:1008C0000068C06C704770B50446006801684268F3
:1008D000C1F34001C2F3401251B34AB3216CC906BF
:1008E00003D4216C41F400712164816811F0405FF0
:1008F00017D1A169A9B9C16A11F4700F02D081683A
:1009000049050ED4416821F020014160206C20F49B
:1009100080702064206CC00403D4206C40F001007F
:1009200020642046FFF7CAFF21686FF012000860BC
:10093000206801684268C1F38001C2F3C01289B324
:1009400082B3216CC90603D4216C41F400512164A7
:10095000816811F4401F1ED1816B11F4401F02D039
:100960008168490517D44168490514D4816811F09C
:10097000405F10D1A16971B9416821F080014160E7
:10098000206C20F480502064206CC00503D4206CBF
:1009900040F0010020642046FFF7E6FE21686FF07A
:1009A0000C00086020680168426811F0010FC2F372
:1009B00080120ED06AB10068C0070AD0206C40F4E3
:1009C00080302064204600F046F821686FF0010076
:1009D0000860206801684268C1F34011C2F3806278
:1009E00000290DD0002A0BD0616C41F00201616436
:1009F0006FF0200505602046FFF761FF2068056065
:100A000070BD70B504004FF0000503D0206C0026C7
:100A100010B107E0012070BD666484F83C60204698
:100A200000F01AF8206CC00610D4206C20F4885016
:100A300040F0020020642046FFF7D6FC6664206C7C
:100A400020F0020040F00100206400E0012584F85D
:100A50003C60284670BD704770B51C4E056800228A
:100A60001B49062303241B4886B0B54207D10D68F5
:100A700045F480750D60096801F4807109E0164E37
:100A8000B54217D10D6845F400750D60096801F491
:100A9000007100930591CDE90142694600F05CFCCC
:100AA00000221146122000F04DFE122000F03EFE02
:100AB00006B070BD094EB542FAD10D6845F48065A7
:100AC0000D60096801F48061E3E700000020014047
:100AD0004438024000080240002101400022014049
:100AE00018B50021009190F83C20012A07D001227E
:100AF00080F83C2002689368DB0702D011E00220F6
:100B000018BD936843F001039360204A204B12689C
:100B1000B2FBF3F202EB420200E0521E0092002A06
:100B2000FBD102689368DB072DD0036C40F20164AF
:100B3000A34343F48073036453685B0505D5036CDA
:100B400023F4005343F480530364036CDB0404D5A3
:100B5000436C23F00603436400E0416480F83C10DA
:100B60006FF0220111600B49D1F804230068D2060E
:100B700001D0884207D1816811F0405F03D18168BC
:100B800041F080418160002018BD0000FC01002080
:100B900040420F000020014090F83C1001290CD089
:100BA000012180F83C1001688A6822F001028A6005
:100BB00001688968C90702D007E002207047016C0C
:100BC00021F4885141F001010164002180F83C10BA
:100BD00008467047F0B50A7D01209040344A1368FA
:100BE00043F001031360136823F47C53136013680C
:100BF0004C6A43EA042313602D4B1C331C68844366
:100C00001C602B4D2B4CCE690C35A6B92E68864343
:100C10002E608F894E6867F31F464F6904EBC70744
:100C2000C7F840660F890E6867F31F464F6904EBEB
:100C3000C707C7F84466CE69012E14D12E68064353
:100C40002E600E884D6866F31F454E6904EBC6069C
:100C5000C6F840560E89CD6866F31F454E6904EB11
:100C6000C604C4F84456124C8D69241D002D256815
:100C700006D0054325600E4C0D69143415B104E00F
:100C80008543F7E72568854325600D69012D02D16D
:100C9000256805432560096A012902D119680143C5
:100CA0001960106820F0010010600020F0BD000005
:100CB00000660040006000407047000010B5044628
:100CC00000684169C943C90714D1826858499143F2
:100CD00068D000218368574A9A4365D00022836810
:100CE0005548984362D000201143014302D020466A
:100CF000FFF7F4FC2068C168406911F0030FC0F3EE
:100D0000400004D018B100212046FFF751FC2168B3
:100D10000869496910F0030FC1F3001104D019B13B
:100D200001212046FFF744FC20688169426911F0E7
:100D3000010FC2F300234269C2F3C03205D023B1D0
:100D40001AB1E16B41F00101E1638169C1F3400334
:100D500041694269C1F34021C2F3C0322BB121B1D4
:100D60001AB1E16B41F00201E16381694269C1F3AB
:100D70008001C2F380234269C2F3C03229B123B19A
:100D80001AB1E16B41F00401E163816911F0700F68
:100D90000ED0002142694369C2F3C022C3F3C033BD
:100DA00041B127E0012195E7012298E701209BE767
:100DB0000121EFE7F2B1EBB1816901F07001402947
:100DC00029D006DC102909D020290BD030290DD1DB
:100DD0001DE0502923D0602908D124E0E16B41F0C7
:100DE000080102E0E16B41F01001E163816921F04B
:100DF00070018161E06B002808D021680420486000
:100E0000012084F838002046FFF756FF10BDE16B43
:100E100041F02001E9E7E16B41F04001E5E7E16BDA
:100E200041F08001E1E7E16B41F48071DDE7000012
:100E30000300000400030008000003102DE9F04146
:100E4000040004D094F83800002518B107E0012010
:100E5000BDE8F08184F83950204600F093F8022074
:100E600084F838002068016821F0020101602068E0
:100E7000016841F00101016000F046FB07460326CE
:100E800005E000BF00F040FBC01B0A2863D82068C3
:100E90004068C007F6D020684168C90768D0A169DA
:100EA000012901683FD021F080010160E06901283B
:100EB000206801683AD021F040010160206A0128D1
:100EC0002068016835D021F020010160606A0128A6
:100ED0002068016830D021F010010160A06A01286B
:100EE000206801682BD021F008010160E06A012828
:100EF0002068016826D021F004010160D4E90201D4
:100F00000843D4E90412114308436168491E0843A9
:100F10002168C8612068016821F00101016000F0CA
:100F2000F3FA07461CE041F08001BEE741F04001C2
:100F3000C3E741F02001C8E741F01001CDE741F0DF
:100F40000801D2E741F00401D7E700BF00F0DCFA66
:100F5000C01B0A2804D904F8386F0320657077E7AE
:100F600020684068C007F1D120684068C00703D0FE
:100F7000042084F838006AE7E563012084F838002B
:100F8000002065E7F0B5464BDFF810E1D0F800C06F
:100F900019680225032609274248434A0024491CB0
:100FA00087B0F44533D11960012907D1116841F0A8
:100FB00000711160116801F0007105914FF44071EA
:100FC000CDE9001502AA694682E8D00000F0C4F914
:100FD00000221146132000F0B5FB132000F0A6FB01
:100FE00000221146142000F0ADFB142000F09EFBFF
:100FF00000221146152000F0A5FB152000F096FBFD
:1010000000221146162000F09DFB162041E0DFF87B
:101010009CE0F4453FD1D2F800C04CF0806CC2F89F
:1010200000C0D2F800C001290CF0806CCDF814C0CB
:10103000196007D1116841F000711160116801F069
:10104000007105916021CDE9001502AA694682E888
:10105000D00000F081F9002211463F2000F072FB21
:101060003F2000F063FB00221146402000F06AFBA5
:10107000402000F05BFB00221146412000F062FBA3
:10108000412000F053FB00221146422000F05AFBA1
:10109000422000F04BFB07B0F0BD000000640040B0
:1010A0000000002000040240403802400068004078
:1010B00010B590F83820012A01D0122A39D190F8C1
:1010C0003920012A35D0012280F8392090F83820C3
:1010D000122A29D05FF0220280F838200022C26351
:1010E00003685C6944F480745C6103685C6944F47F
:1010F00000745C6103685C6944F480645C6103684B
:101100005C6944F400645C6103685C6944F4004415
:101110005C6180F8392000680029416906D041F0FF
:1011200010014161002010BD3222D5E741F00201DB
:10113000F7E7022010BD70472DE9F05F0E46016809
:1011400004468868400105D48868000102D4886894
:10115000C00067D594F8390001280ED0012784F823
:10116000397094F8380022280AD0122084F8380008
:101170008868400106D500250AE00220BDE8F09FFE
:101180003220F3E78868000101D5012500E002253F
:101190004FF4C07000EB05100A5802F001020A502B
:1011A000216B8A68EAB3D4F800C05CF800301343BE
:1011B000CA68496842EAC1010B434CF80030216B10
:1011C0000A7C02F00F020A614FF4C271226801EB3F
:1011D0000511535823F00F03535022685358D4F885
:1011E00030C0DCF810C043EA0C035350216B4FF4BD
:1011F000C47303EB05130A7DD1F8151042EA0121EF
:101200002268D150216B4FF4C67303EB05130A7E9D
:10121000D1F8191042EA01212268D15021680A58F8
:1012200001E00DE046E042F001020A5000F06CF9E6
:1012300081464FF00008DFF888A0DFF888B019E099
:1012400022681358D1F80CC0098843EA0C0343EA1A
:1012500041511150B3E7701C0CD02EB100F054F97D
:10126000A0EB0900B04205D9032084F8380084F8C7
:10127000398083E795B12068012D816813D0124829
:1012800088430028E7D194F8380032280ED084F83B
:10129000387000BF84F8398000206FE720688168CB
:1012A0002AEA0100EDE72BEA0100EAE7222084F8B0
:1012B0003800EFE7042084F8380001205EE70000E2
:1012C000030000040003000800000310704710B57D
:1012D000040002D0607910B106E0012010BD0020AA
:1012E0002071204600F006F8022060710120607134
:1012F000002010BD08B500680649884208D106489C
:10130000016841F480510160006800F48050009051
:1013100008BD0000003002403038024090F835101F
:10132000022903D08021416501207047052180F802
:1013300035100068016821F001010160002070474C
:1013400031B500F0E1F8044600F0DEF80099001B2A
:101350008842F9D338BD70472DE9F84FDFF87CB1EA
:1013600000224FF001084FF0030A4FF00F090BF174
:10137000040E00BF0B6808FA02F42340A3426ED1AA
:101380004D68022D01D0122D0ED1D50800EB850C31
:10139000DCF820505607F70E09FA07F6B5430E6938
:1013A000BE402E43CCF82060066855000F790AFA3B
:1013B00005FC07F0030726EA0C06AF403743076039
:1013C0004E68012E05D0022E03D0112E01D0122E10
:1013D0000ED18668CF6826EA0C06AF403743876097
:1013E0004668A6430C79C4F3001494403443446027
:1013F000C6688C6826EA0C06AC403443C4604C686E
:10140000E40065D5364C256845F4804525602468A0
:1014100022F0030504F480440094324C2E19D6F8CF
:10142000084895072F0F09FA07F5AC432E4DA8423F
:1014300001D1002524E02D4DA84201D101251FE056
:101440002B4DA84201D102251AE02A4DA84201D114
:10145000032515E0284DA84202D1042510E037E00D
:10146000264DA84201D105250AE0254DA84201D10B
:10147000062505E0234DA84201D1072500E00825F7
:10148000BD402543C6F80858DBF800405D464E686D
:101490009C43F60300D51C432C60DEF800407546E3
:1014A0004E689C43B60300D51C432C600B4D083599
:1014B0002C684E689C43F60200D51C432C60074DF7
:1014C0000C352C684E689C43B60200D51C432C603A
:1014D000521C102AFFF44EAFBDE8F88F003C0140CB
:1014E0004438024000300140000002400004024045
:1014F00000080240000C02400010024000140240AC
:1015000000180240001C02400148006870470000BB
:10151000F801002070B5040004D094F83D000025C7
:1015200010B106E0012070BD84F83C50204600F068
:1015300075F8242084F83D002068016821F001013D
:10154000016000F0F5F933492268B0FBF1F1516018
:10155000314A6368934206D94FF4967359434FF466
:101560007A73B1FBF3F12368491C196261689142F7
:101570000BD84900B0FBF1F2C2F30B02042A01D2EE
:10158000042019E0B0FBF1F016E0A3689BB301EB77
:10159000C10202EB0112B0FBF2F242F480421205EA
:1015A00030D04BB301EBC10202EB0111B0FBF1F003
:1015B00040F4804040F400402168C861D4E907014C
:1015C000084321680860D4E9031008432168886053
:1015D000D4E9050108432168C8602068016841F02A
:1015E000010101602564202084F83D00256384F812
:1015F0003E50002070BD00E006E001EB4102B0FB70
:10160000F2F2CCE70120D7E701EB4101B0FBF1F0AA
:10161000D0E7000040420F00A086010000B500683E
:101620000E4987B0884217D14FF4406000901220D5
:101630000190012002900320039004200490694649
:101640000748FFF789FE0748016841F480010160FF
:10165000006800F48000059007B000BD005800400D
:10166000000402404038024002480168491C016001
:1016700070470000F80100200B4810B5016841F4E4
:1016800000710160016841F480610160016841F40A
:1016900080710160032000F075F8002000F006F86A
:1016A00000F018F8002010BD003C024010B50446C0
:1016B00007484FF47A710068B0FBF1F000F04BFB83
:1016C00000222146501E00F03DF8002010BD000011
:1016D000FC01002010B5032000F054F80022114650
:1016E0006FF00B0000F02EF8002211466FF00A0098
:1016F00000F028F8002211466FF0090000F022F8EF
:1017000000221146501F00F01DF800221146101F44
:1017100000F018F800221146901E00F013F8002285
:10172000BDE810401146501E00F00CB800F01F023A
:10173000012191404009800000F1E020C0F8001133
:1017400070470000F0B40E4B1B680C46C3F3022335
:10175000C3F10705042D00D90425191D072901D25D
:10176000002300E0DB1E012606FA05F1491E214098
:1017700099409E40761E16403143F0BC01F05BBAA2
:101780000CED00E0064900F0070208684FF6FF0381
:10179000184040EA0220034A1043086070470000E6
:1017A0000CED00E00000FA052DE9F047DFF8649148
:1017B00005460F46D9F8000000F00F01F8B2804648
:1017C000B94208D2014689F80010D9F8000000F0AB
:1017D0000F00B84274D128784F4C800705D5206897
:1017E000A96820F0F000084320602878C00759D08D
:1017F00049496868083901281AD002281BD00328F3
:1018000019D00968890700295ADA216821F00301F3
:1018100001432160FFF778FE6968064641F288308F
:10182000012911D002291DD00329824627D035E095
:1018300009688903E7E709688901E4E7FFF764FEBF
:10184000811B514501D926E082462068C0F3810002
:101850000128F3D126E000BFFFF756FE811B51455A
:1018600001D918E082462068C0F381000228F3D134
:1018700018E000BFFFF748FE811B51450BD82068D8
:10188000C0F381000328F5D10CE000BFFFF73CFE58
:10189000811B514502D90320BDE8F087206810F074
:1018A0000C0FF3D1D9F80010484601F00F01B942EE
:1018B00008D980F80080006800F00F00B84201D01D
:1018C0000120E9E72878400705D52068E96820F479
:1018D000E050084320602878000706D52068296971
:1018E00020F4604040EAC100206000F051F8216817
:1018F000F02292FAA2F201F0F001B2FA82F2D140A3
:10190000064A515CC840064908600020FFF7CEFE39
:101910000020C1E7003C0240083802405431010871
:10192000FC0100200148006870470000FC01002015
:1019300008480949006809684FF4E05292FAA2F297
:1019400001F4E051B2FA82F2D140044A515CC8403D
:1019500070470000FC0100200838024054310108A3
:1019600008480949006809684FF4604292FAA2F2F7
:1019700001F46041B2FA82F2D140044A515CC8409D
:1019800070470000FC010020083802405431010873
:10199000154810B5006810F00C01144823D0042934
:1019A00021D008291FD11049091F0A6802F03F03FE
:1019B0000A68B0FBF3F00B6847F6C072134092FA66
:1019C000A2F2B2FA82F2D340096858434FF440328F
:1019D00092FAA2F201F44031B2FA82F2D140491CEB
:1019E0004900B0FBF1F010BD083802400024F400BB
:1019F0002DE9F84F0446DFF8CC820078A8F1040BFB
:101A0000C007ABF1040537D0D8F800104046C1F349
:101A10008101012908D00068C0F3810002280AD1A1
:101A2000DBF80000400206D52868800324D56068F2
:101A3000002878D020E0A3492079891F08706068C9
:101A400068B1FFF761FD064605E000BFFFF75CFDEA
:101A5000801B642868D828688003F7D50CE0FFF75E
:101A600053FD064605E000BFFFF74EFD801B6428CE
:101A7000F0D828688003F7D42078934E80074FF081
:101A8000010A4FF0000742D5D8F80010404611F087
:101A90000C0F08D00068C0F3810002280AD1DBF8DF
:101AA0000000400206D42868800714D5E0680128A9
:101AB00039D110E0E068D8B1C6F800A0FFF724FDE6
:101AC000814605E0FFF720FDA0EB09000228C1D800
:101AD00028688007F6D52868F82292FAA2F22169D0
:101AE000B2FA82F220F0F8009140084328600EE03C
:101AF0003760FFF709FD814606E000BFFFF704FDF0
:101B0000A0EB090002280FD828688007F6D42078B7
:101B1000000728D56D486169A1B1C0F800A0FFF7A2
:101B2000F3FC814608E0CAE079E000BFFFF7ECFC77
:101B3000A0EB0900022872D862486C300068800768
:101B4000F4D510E00760FFF7DFFC814606E000BF38
:101B5000FFF7DAFCA0EB0900022860D859486C3086
:101B600000688007F4D42078400749D555483830BC
:101B7000016841F080510160006800F080500090E1
:101B80005348016841F480710160FFF7BDFC814654
:101B900006E000BFFFF7B8FCA0EB090002283ED822
:101BA0004B480068C005F5D5DFF81891207A09F197
:101BB000680989F80000A06888B1FFF7A5FC0090CB
:101BC00008E000BFFFF7A0FC0099411A41F28830FD
:101BD00081426CD8D9F800008007F3D510E0FFF7F8
:101BE00093FC009008E000BFFFF78EFC0099411ABB
:101BF00041F2883081425AD8D9F800008007F3D4E6
:101C0000A069E0B3D8F80010C1F38101022956D0D1
:101C10000228376604D0FFF777FC04464AE046E026
:101C2000FFF772FC074604E0FFF76EFCC01B0228BA
:101C30003DD828688001F7D4D4E90701084347F666
:101C4000C07292FAA2F2616AB2FA82F29140A26A7A
:101C50004FF0FF3303EB52024FF4403393FAA3F3F8
:101C6000B3FA83F39A40114308434FF0706292FA3B
:101C7000A2F2E16AB2FA82F29140084300E01CE06D
:101C8000CBF80000C6F860A0FFF73EFC044604E075
:101C9000FFF73AFC001B022809D828688001F7D515
:101CA0000BE000BFFFF730FC001B022802D9032025
:101CB000BDE8F88F28688001F4D40020F8E70120FF
:101CC000F6E700000838024000004742800E474215
:101CD0000070004070B5040008D02079012807D0BA
:101CE000012525716079002620B107E0012070BD33
:101CF000022070BD2671204600F00CF802206071B1
:101D00002068016841F004010160657126710020BE
:101D100070BD000008B500680649884208D1064831
:101D2000016841F040010160006800F0400000904F
:101D300008BD000000080650343802404FF0E02192
:101D40000428086903D020F004000861704740F0BF
:101D50000400FAE7704710B5401EB0F1807F01D350
:101D6000012010BD4FF0E02460610F21601700F0EA
:101D700062FF0020A06107202061002010BD10B587
:101D8000FFF7E8FF10BD7047704730B590F8382076
:101D9000012A20D0012280F83820022380F839302F
:101DA00003685C6824F070045C6003685C680D681C
:101DB0002C435C6003689C6824F080049C6003688A
:101DC0009C6849680C439C6080F83920002180F8A9
:101DD0003810084630BD022030BD2DE9F0410D46D7
:101DE000040003D094F8390018B108E00120BDE8E0
:101DF000F081002084F83800204600F039F80220F5
:101E000084F839002068816821F007018160211D74
:101E1000206800F0D7FF226890689169166A2B68E5
:101E2000AF69034340F20330814341EA0721A868C8
:101E3000EF6908434FF6FC418843E96840EA072010
:101E4000014328692F6A000140EA073008436968A6
:101E50006D6926F0AA0646EA0515294393602268B3
:101E6000906120680162012084F839000020BEE7FB
:101E700000B50068104987B088421BD10F48002286
:101E8000016841F0080101600068022100F00800CB
:101E9000059003208DE80700CDE903016946084855
:101EA000FFF75AFA002211463220FFF74BFC32208E
:101EB000FFF73CFC07B000BD000C0040403802407A
:101EC0000000024010B50446006891B1042904D016
:101ED0000122002100F0D6FF206801225FF00401FA
:101EE00000F0D0FF2068016841F00101016000208E
:101EF00010BD01220021F3E77047000070B50446D1
:101F0000006801694FF00005C943890715D4C1680D
:101F1000C943890711D4E91E016101202076206898
:101F200080698007204602D0FFF7E6FF04E000F05A
:101F3000C3F8204600F056F9257620680169C943A8
:101F4000490717D4C168C943490713D46FF0040186
:101F50000161022020762068806910F4407F2046CD
:101F600002D0FFF7C9FF04E000F0A6F8204600F019
:101F700039F9257620680169C943090716D4C16873
:101F8000C943090712D46FF00801016104202076CB
:101F90002068C0698007204602D0FFF7ADFF04E04B
:101FA00000F08AF8204600F01DF9257620680169C6
:101FB000C943C90617D4C168C943C90613D46FF011
:101FC00010010161082020762068C06910F4407F6C
:101FD000204602D0FFF790FF04E000F06DF82046A5
:101FE00000F000F9257620680169C943C90719D1B5
:101FF000C168C943C90715D1891E016121680868F4
:10200000C043C2061F4803D40178491C017006E092
:102010000968C943C90602D54178491C4170204668
:1020200000F0E1F820680169C943090609D4C168D4
:10203000C943090605D46FF0800101612046FFF70E
:10204000A2FE20680169C943490609D4C168C94391
:10205000490605D46FF040010161204600F0C4F844
:1020600020680169C94389060BD4C168C943890640
:1020700007D46FF0200101612046BDE87040FFF7F2
:1020800083BE70BD0400002000B5006885B0B0F1CB
:10209000804F0DD108200090022001900020029076
:1020A000032003900120049069460248FFF754F989
:1020B00005B000BD00040240704770B5044690F8BA
:1020C00038000D4601280DD0012684F83860022022
:1020D00084F8390042B1042A18D0082A2AD00C2AE0
:1020E0004DD139E0022070BD206800F0E1FE20688B
:1020F000816941F0080181612068816921F0040152
:102100008161206881692A69114311E0206800F02B
:10211000FBFE2068816941F400618161206881696A
:1021200021F480618161206881692A6941EA022184
:10213000816124E0206800F019FF2068C16941F046
:102140000801C1612068C16921F00401C1612068F2
:10215000C1692A69114311E0206800F037FF206847
:10216000C16941F40061C1612068C16921F48061E5
:10217000C1612068C1692A6941EA0221C16184F80C
:102180003960002084F8380070BD10B5040003D019
:1021900094F8390010B107E0012010BD002084F848
:1021A0003800204600F00CF8022084F83900211D88
:1021B000206800F007FE012084F83900002010BDDF
:1021C00008B50068B0F1804F08D10548016841F0BA
:1021D00001010160006800F00100009008BD0000EE
:1021E00040380240704770477047704770B50268CA
:1021F00004461068D168536910F00F0F51D003F0F6
:10220000010501F4907635435DD0C20705D0CA05BB
:1022100003D5E26B42F00102E263420705D5DA071B
:1022200003D0E26B42F00202E263820705D5DA07CF
:1022300003D0E26B42F00402E263020705D5DA073D
:1022400003D0E26B42F00802E263E26B002A34D072
:10225000800604D5880602D5204600F0F5FE2068E9
:102260004069E16BC0F3801001F008010143204692
:1022700024D000F0DBFE2068416949061AD5416987
:1022800021F040014161606BA0B11B490165606BA9
:10229000FFF744F8002810D0606B016DBDE8704076
:1022A000084783060FD58B060DD52046BDE8704044
:1022B00000F0CABE2046FFF798FF70BDFFF795FFFC
:1022C0000020E06370BD030606D50B0604D520464A
:1022D000BDE8704001F054B84006F3D54806F1D58A
:1022E000D168204621F04001D160202184F83910C6
:1022F00000F002F970BD00001D30000870B5040048
:1023000004D094F83900002510B106E0012070BD1A
:1023100084F83850204600F023F8242084F839004F
:102320002068C16821F40051C160204600F0D2FE4F
:102330002068016921F4904101612068416921F020
:102340002A0141612068C16841F40051C160E56320
:10235000202084F8390084F83A00002070BD000085
:1023600030B500681E4D022101220323072487B0E7
:10237000A84216D11B48056845F0100505600068A5
:1023800000F01000059058028DE81F0069461648BD
:10239000FEF7E2FF002211462520FFF7D3F92520A2
:1023A0001AE0124DA84219D10E48001F056845F4E5
:1023B00080250560006800F4802005904FF440708F
:1023C0008DE81F0069460A48FEF7C6FF0022114645
:1023D0002720FFF7B7F92720FFF7A8F907B030BD8E
:1023E0000010014044380240000002400048004014
:1023F000000C024090F83A30202B1DD1D1B1CAB167
:1024000090F83830012B17D081628285C285002177
:10241000C163222280F83A2080F8381001684A69A6
:1024200042F001024A610068C16841F49071C160E4
:1024300000207047012070470220704770472DE947
:10244000F843044690F839001F4616460D462028EA
:1024500050D1A5B19EB194F8380001284AD001208E
:1024600084F838004FF00008C4F83C80212084F83C
:102470003900FFF749F8A6848146E68426E001206A
:10248000BDE8F883E08C401EE084A0684B46B0F5C0
:10249000805F4FF000024FF080012046009703D08C
:1024A00000F09FFFE8B90DE000F09BFFC8B9288855
:1024B0002168C0F308004860206908B16D1C05E080
:1024C000AD1C03E0216815F8010B4860E08C002882
:1024D000D8D14B46002240212046009700F081FFD2
:1024E00008B10320CCE7202084F8390084F8388034
:1024F0000020C5E70220C3E77047FEE77FB511481B
:102500000F49002401604FF48031C0E901140461D7
:1025100084610462C4620125C460C56145610463CD
:10252000FEF76FFA00B1FEE70B20CDE90005694622
:1025300002940448FEF71AF9002800D0FEE77FBD98
:1025400000200140440200207FB511480F490024BB
:1025500001604FF48031C0E90114046184610462B8
:10256000C4620125C460C56145610463FEF749FA90
:1025700000B1FEE70C20CDE900056946029404484D
:10258000FEF7F4F8002800D0FEE77FBD00210140EF
:102590008C0200207FB511480F49002401604FF4E0
:1025A0008031C0E90114046184610462C4620125C0
:1025B000C460C56145610463FEF723FA00B1FEE71C
:1025C0000C20CDE90005694602940448FEF7CEF8D8
:1025D000002800D0FEE77FBD00220140D402002089
:1025E00010B515481349002401600321C0E9011406
:1025F0004FF40021C0E903414FF44011C0E9051434
:10260000C461046244628462C462FEF717FC00B1D4
:10261000FEE70A4801214461C0E9064104604460C4
:102620008460C460046101620146BDE81040024854
:10263000FEF7D0BA006400401C0300201C040020F8
:1026400010B516481449002401600321C0E90114A3
:102650004FF40021C0E903414FF44011C0E90514D3
:10266000C461046244628462C462FEF7E7FB00B1A5
:10267000FEE70A480121E8304461C0E906410460F0
:1026800044608460C460046101620146BDE810409A
:10269000E838FEF79FBA0000006800405C030020A5
:1026A000F0B5454887B00025016841F01001016090
:1026B000016801F010010591016841F00401016019
:1026C000016801F004010591016841F08001016099
:1026D000016801F080010591016841F0010101608C
:1026E000016801F001010591016841F002010160FA
:1026F000016801F002010591016841F008010160E3
:102700000068012600F008000590042000902B4886
:10271000CDE901062A4F69463846FEF71DFE4FF601
:10272000FB7003248DE8310069463846FEF714FE3D
:102730004FF6F9708DE8310069462248FEF70CFE2D
:1027400049F6FC108DE8310069461F48FEF704FE8B
:102750001E480094CDE901061D4E69463046FEF73D
:10276000FBFD4FF294008DE8310069463046FEF7DC
:10277000F3FD4FF6FF408DE8310069461548FEF73E
:10278000EBFD002211460620FEF7DCFF0620FEF7D7
:10279000CDFF002211460720FEF7D4FF0720FEF7E9
:1027A000C5FF002211460820FEF7CCFF0820FEF7E7
:1027B000BDFF07B0F0BD000030380240000021101E
:1027C000001002400008024000000240000011100A
:1027D00000040240000C024010B513488AB04FF0CC
:1027E00080410024C0E900148460C4600461FFF7E4
:1027F000CCFC00B1FEE7079407A90B480894FFF74B
:10280000C4FA00B1FEE76020CDE90004029404227E
:10281000694605480494FFF750FC00B1FEE7024802
:10282000FFF732FC0AB010BDCC04002010B51548EB
:102830008CB013490024C0E900148914C0E9024196
:1028400004610320CDE900040120CDE902040494D1
:10285000CDE90540079469460A480894FFF7BDFA98
:1028600000B1FEE7099409A906480A94FFF78DFA1A
:1028700000B1FEE718210348FFF724FB0CB010BDA0
:10288000000C004008050020FEE70000F0B59FB0F6
:10289000382265490EA8FDF793FC634C14F8380FF5
:1028A0008DF87000604D183D35F8510FADF871008E
:1028B000A8788DF8730060681D905C4E4FF48870A6
:1028C000CDE90C06302212A96846FDF779FC0EAF5F
:1028D00097E80F0000F0C2F9382253490EA8FDF71F
:1028E0006FFC20788DF870002888ADF87100A8780A
:1028F0008DF8730060681D904FF49070CDE90C0660
:10290000302212A96846FDF75BFC97E80F0000F043
:10291000A5F94FF47A773846FEF712FD382242497E
:102920000EA8FDF74DFC20788DF870002888ADF8D2
:102930007100A8788DF8730060681D90303640F201
:102940001110CDE90C06302212A96846FDF738FCBB
:102950000DF1380C9CE80F0000F080F93822324964
:102960000EA8FDF72DFC20788DF870002888ADF8B2
:102970007100A8788DF8730060681D9040F22110F6
:10298000CDE90C06302212A96846FDF719FC0EAEFF
:1029900096E80F0000F062F93846FEF7D1FC3822C5
:1029A00021490EA8FDF70CFC20788DF870002888CE
:1029B000ADF87100A8788DF8730060681D901B4E0B
:1029C0004FF48D704836CDE90C06302212A96846C6
:1029D000FDF7F6FB0DF1380C9CE80F0000F03EF916
:1029E000382211490EA8FDF7EBFB20788DF8700016
:1029F0002888ADF87100A8788DF8730060681D9084
:102A00004FF49570CDE90C06302212A96846FDF707
:102A1000D7FB0EAC94E80F0000F020F91FB0384649
:102A2000BDE8F040FEF78CBC1C03002048000020ED
:102A300070B59EB038227D490EA8FDF7C1FB7B4CD6
:102A400014F8380F8DF87000784D183D35F8510F97
:102A5000ADF87100A8788DF8730060681D90744E11
:102A60001020CDE90C06302212A96846FDF7A8FB1C
:102A70000DF1380C9CE80F0000F0F0F838226B499B
:102A80000EA8FDF79DFB20788DF870002888ADF822
:102A90007100A8788DF8730060681D902020CDE942
:102AA0000C06302212A96846FDF78AFB0DF1380C9E
:102AB0009CE80F0000F0D2F838225C490EA8FDF720
:102AC0007FFB20788DF870002888ADF87100A87819
:102AD0008DF8730060681D903020CDE90C06024629
:102AE00012A96846FDF76CFB0DF1380C9CE80F004D
:102AF00000F0B4F838224D490EA8FDF761FB2078AC
:102B00008DF870002888ADF87100A8788DF87300F2
:102B100060681D904020CDE90C06302212A968465D
:102B2000FDF74EFB0EAE96E80F0000F097F84FF45D
:102B30007A70FEF705FC38223C490EA8FDF740FBF1
:102B400020788DF870002888ADF87100A8788DF88D
:102B5000730060681D90364E11200836CDE90C06D2
:102B6000302212A96846FDF72BFB0DF1380C9CE8CA
:102B70000F0000F073F838222C490EA8FDF720FB57
:102B800020788DF870002888ADF87100A8788DF84D
:102B9000730060681D902120CDE90C06302212A937
:102BA0006846FDF70DFB0DF1380C9CE80F0000F0B6
:102BB00055F838221D490EA8FDF702FB20788DF844
:102BC00070002888ADF87100A8788DF873006068EF
:102BD0001D903120CDE90C06302212A96846FDF780
:102BE000EFFA0DF1380C9CE80F0000F037F83822AE
:102BF0000E490EA8FDF7E4FA20788DF870002888B9
:102C0000ADF87100A8788DF8730060681D904120C0
:102C1000CDE90C06302212A96846FDF7D1FA0EACB8
:102C200094E80F0000F01AF81EB070BD1C030020DD
:102C30004800002070470907090E002806DA00F056
:102C40000F0000F1E02080F8141D704700F1E02033
:102C500080F8001470477047704700000FB4DDE93A
:102C600010100C9A11600C9A0021D1600C9A91609E
:102C70000C9A082111610C9A017811750C9A41780F
:102C800051750C9A817891750C9AC178D1750C9A0E
:102C9000017911760C9A417951760C9A8179917665
:102CA0000C99C079C876C821014804B0FEF744BA2F
:102CB0001C03002010B5FEF7D7FCBDE81040FFF75D
:102CC0005EB8000030B5254893B00025016841F09A
:102CD00080510160006800F0805011902048016828
:102CE00041F4804101600068022400F480401190AA
:102CF000012003901020009406940490CDE9075021
:102D00004FF4A870CDE9090407200B906846FEF740
:102D10006FFE00B1FEE70CA90F2081E831004FF4EF
:102D2000A0500F904FF48050109005210CA8FEF792
:102D30003BFD00B1FEE7FEF7F5FD4FF47A71B0FB05
:102D4000F1F0FFF708F80420FEF7F8FF0022114623
:102D5000501EFEF7F7FC13B030BD000040380240B3
:102D6000007000401048016841F4700101600F4894
:102D7000016841F0010101600C4A00210832116034
:102D800002680B4B1A400260031D0A4A1A6002686F
:102D900022F48022026005480C3001600249580686
:102DA000803908607047000088ED00E0003802407C
:102DB000FFFFF6FE103000240148FFF79FB8000027
:102DC00008050020F0B50268234B244D244E254F02
:102DD000254C4FF0804C984209D0604507D0A8425E
:102DE00005D0B04203D0B84201D0A04204D122F0B5
:102DF000700E4A6842EA0E0298421BD0604519D014
:102E0000A84217D0B04215D0B84213D0A04211D07A
:102E1000164DA8420ED0164DA8420BD0154DA84213
:102E200008D0154DA84205D0144DA84202D0144D2B
:102E3000A84203D122F44075CA682A4302608A6816
:102E4000C2620A688262984201D0A04201D1096937
:102E5000016301214161F0BD000001400004004018
:102E600000080040000C0040000401400040014008
:102E7000004401400048014000180040001C004090
:102E80000020004010B50123046A8B409C4304627B
:102E9000036A8A401343036210BD002AC26801D04E
:102EA0000A4302E0C94389B20A40C2607047000089
:102EB00030B5026A22F001020262026A4368846944
:102EC0000D6824F07304254322F002048A6822432B
:102ED0000B4CA04202D00B4CA0420BD122F00804B4
:102EE000CA6823F4407322434C6922F004021C4355
:102EF0008B6923434360856149684163026230BD49
:102F0000000001400004014030B5026A22F01002C6
:102F10000262026A436884690D6824F4E64444EA64
:102F200005248D6822F0200242EA05120D4DA842C8
:102F300002D00D4DA8420ED1CD6822F0800242EAA7
:102F400005124D6923F4406343EA85038D6922F03D
:102F5000400243EA850343608461496881630262F9
:102F600030BD0000000001400004014030B5026A9D
:102F700022F480720262036A4268C46923F4007317
:102F800024F073050C682C438D6843EA05230D4D2E
:102F9000A84202D00C4DA8420ED1CD6823F40063A4
:102FA00043EA05234D6922F4405242EA05128D6935
:102FB00023F4806342EA05124260C4614968C16338
:102FC000036230BD000001400004014030B5026AD8
:102FD00022F480520262046A4268C3690D6823F4D5
:102FE000E64343EA05238D6824F4005444EA05349B
:102FF000084DA84202D0084DA84204D14D6922F4E0
:10300000804242EA85124260C361496801640462F9
:1030100030BD0000000001400004014010B5806B8D
:103020000021C185C184FFF7E0F810BD0168CA68BE
:1030300022F49072CA6001684A6922F001024A6172
:10304000202180F83A10704710B590F83A102229E4
:1030500001D0022010BD8168B1F5805F11D00169F7
:10306000002901681FD0496801F07F03816A4A1C6A
:1030700082620B70C18D491E0904090CC18518D0EC
:1030800026E00269816A002A0268526805D0D2B23D
:103090000A80816A491C8162ECE7C2F308020A8057
:1030A000816A891CF7E74A68816A4B1C83620A704F
:1030B000E0E70168CA6822F49072CA6001684A6950
:1030C00022F001024A61202180F83A10FFF7B6F998
:1030D000002010BD2DE9F04104460068016921F48B
:1030E0004052E168114301612168C86849F20C62ED
:1030F00090432369A268E5691A4363692B431A4325
:103100000243CA602168486920F44072A0691043F4
:103110004861E1696425B1F5004F9748974A2168F5
:103120004FF032083FD0914201D081427CD1FEF76E
:1031300017FC00EBC00101EB001061688900B0FBD7
:10314000F1F6FEF70DFC00EBC00101EB0010616829
:103150008900B0FBF1F0B0FBF5F06FF018014843C7
:1031600006EB800108EB0110B0FBF5F000F0F00673
:10317000FEF7F6FB00EBC00101EB0010616889006F
:10318000B0FBF1F0B0FBF5F006EB0016FEF7E8FB44
:1031900000EBC00101EB001061688900B0FBF1F7A2
:1031A000FEF7DEFBD2E0914201D081423DD1FEF735
:1031B000D7FB00EBC00101EB001061684900B0FBD8
:1031C000F1F0B0FBF5F00601FEF7CAFB00EBC00121
:1031D00001EB001061684900B0FBF1F7FEF7C0FB9E
:1031E00000EBC00101EB001061684900B0FBF1F099
:1031F000B0FBF5F06FF01801484307EB800108EBD6
:10320000C100B0FBF5F000F0F80006EB4006FEF759
:10321000A7FB00EBC00101EB001061684900B0FBA7
:10322000F1F7FEF79DFB3CE055E0FEF781FB00EB7C
:10323000C00101EB001061684900B0FBF1F0B0FB88
:10324000F5F00601FEF774FB00EBC00101EB001086
:1032500061684900B0FBF1F7FEF76AFB00EBC001C3
:1032600001EB001061684900B0FBF1F0B0FBF5F034
:103270006FF01801484307EB800108EBC100B0FB79
:10328000F5F000F0F80006EB4006FEF751FB00EB0E
:10329000C00101EB001061684900B0FBF1F7FEF7D7
:1032A00047FB00EBC00101EB001061684900B0FB77
:1032B000F1F0B0FBF5F06FF01801484307EB800127
:1032C00008EBC100B0FBF5F000F0070021683044C6
:1032D0008860BDE8F081FEF72BFB00EBC00101EB3D
:1032E000001061688900B0FBF1F6FEF721FB00EBEE
:1032F000C00101EB001061688900B0FBF1F0B0FB88
:10330000F5F06FF01801484306EB800108EB01105F
:10331000B0FBF5F000F0F006FEF70AFB00EBC00191
:1033200001EB001061688900B0FBF1F0B0FBF5F033
:1033300006EB0016FEF7FCFA00EBC00101EB0010F3
:1033400061688900B0FBF1F7FEF7F2FA00EBC0010B
:1033500001EB001061688900B0FBF1F0B0FBF5F003
:103360006FF01801484307EB800108EB0110B0FB38
:10337000F5F000F00F00A9E7001401400010014033
:1033800090F83910212901D0022070478168B1F5E9
:10339000805F016A0BD04A1C0262026809785160A2
:1033A000C18C491E0904090CC1840ED017E009889C
:1033B0000268C1F30801516001690029016A02D065
:1033C000491C0162ECE7891CFBE70168CA6822F02E
:1033D0008002CA600068C16841F04001C1600020FD
:1033E00070472DE9F041984617460E460446069D63
:1033F0001DE0681C1BD02DB1FEF786F8A0EB08007D
:10340000A84214D92068C16821F4D071C160206835
:10341000416921F001014161202084F8390084F8DC
:103420003A00002084F838000320BDE8F0812068CD
:10343000006836EA000004D00020B842D9D000204D
:10344000F3E70120F9E700000148FEF7CFBE0000D6
:103450004405002010B50648FEF7C8FE05490120C6
:103460000B220870BDE8104003490148FEF7C2BFB7
:1034700084050020F3010020E8010020FEE70000A1
:10348000014A024900F013B8393500080002002053
:1034900002E008C8121F08C1002AFAD1704770471D
:1034A000002001E001C1121F002AFBD170472DE965
:1034B000F04116460F460446002503E03946B04762
:1034C000641C6D1C20780028F8D12846BDE8F081E6
:1034D00000B5174900EB800080009FB0020A0A7017
:1034E0004870382213490EA8FCF76AFE114890F87C
:1034F00038108DF87010A0F1180131F8512FADF887
:10350000712089788DF87310C06B1D9008494FF4B5
:103510000570CDE90C01302212A96846FCF750FE77
:103520000DF1380C9CE80F00FFF798FB1FB000BDB1
:10353000A00000201C03002013B54FF6FF730122EA
:1035400069460248FEF77BFF00981CBD4405002039
:1035500010B50F48FDF7C4FA0520FDF7F1FE0C4841
:10356000FDF71AFB0A48FDF7ABF90A4CA0820848A0
:103570004830FDF7B5FA0520FDF7E2FE0448483073
:10358000FDF70AFB02484830FDF79AF9E08210BDCA
:10359000440200200400002030B50C4601469FB0D4
:1035A000274800F051F826482146083000F04CF832
:1035B000382224490EA8FCF703FE224C14F8380FD9
:1035C0008DF870001F4D183D35F8510FADF87100A2
:1035D000A8788DF8730060681D90194940F21510A5
:1035E000CDE90C01302212A96846FCF7E9FD0DF186
:1035F000380C9CE80F00FFF731FB382211490EA868
:10360000FCF7DEFD20788DF870002888ADF8710099
:10361000A8788DF8730060681D90094940F2251064
:103620000831CDE90C01302212A96846FCF7C8FD2B
:103630000EAD95E80F00FFF711FB1FB030BD000085
:10364000800000201C030020C1710A0A82710A0C4C
:1036500042710916017170472DED028B9EB0022058
:10366000FE4D00246873A8730420E873EC72FEF723
:1036700003F8FFF727FBFFF713F8FEF73FFFFEF70E
:1036800063FFFEF787FFFEF7ABFFFEF7D9FF05F1FB
:10369000D401F34808600846FDF719FE00B1FEE7C3
:1036A000F148F0490160F149C0E901144FF480414B
:1036B000C0E9034144618461C4610462FDF72AFFEB
:1036C00000B1FEE7E849EA48543108600846FEF7D1
:1036D00001FB00B1FEE7FFF77FF8FFF7A7F8E2482C
:1036E000E449D8304FF4E1360160C0E901640C27A9
:1036F000C460C0E904478461C461FEF7FFFD00B106
:10370000FEE7DE48DC49C0E9001600218160C160A7
:10371000C0E904178161C161FEF7F0FD00B1FEE769
:10372000D149D039A1F1800001631C31416340309F
:10373000243101631C314163FFF70AFFC748818AC6
:10374000C28A1144C183FFF773F9FFF79FF8002184
:10375000CB48FDF7ADFCCA4800214030FDF7A8FC7E
:10376000BE48CC30027808380178083800780FF06D
:10377000D5FBBA4C40F6C41A40F2DC5540F6B839D5
:10378000DC34B64EF078012860D1BD480021436B8F
:10379000F8381A68C6F8242001F11407DF5D40F8F4
:1037A0002170491C0829F7DBB2F58E7F03D0B2F5F2
:1037B000967F24D048E00168012902D071B103D07E
:1037C00042E04168012902D0406888B13CE0012014
:1037D000B072002070723072AAA033E040680128F5
:1037E00032D10020B072012171723072A6A029E09E
:1037F0000020B072707201203072A4A022E0016833
:10380000012902D071B103D01EE04168012902D024
:10381000406888B118E00120F0710020B07170712B
:103820009BA00FE0406801280ED10020F07101211B
:10383000B171707197A005E00020F071B0710120A6
:10384000707195A0FFF71CFE0020F0703079012800
:1038500076D18B49002040314A6BA1F5AC7100BF95
:1038600000F11403D35C41F82030401C0828F7DB3A
:103870000868A0B1012826D0022833D0032843D0FD
:10388000042850D0052862D006286FD007286ED0B3
:1038900008286DD009286CD00A286BD0CAE0486887
:1038A00000280AD18868002807D1C868002804D1F8
:1038B000F0730969012901D019B1BBE070730220CE
:1038C00087E0042041E04868002838D18868002853
:1038D00035D1C868002832D1F0730322327393E0E7
:1038E0000120A6E0486850BB886840BBC86830BB70
:1038F0000022F2730869012801D018B19AE07273AE
:10390000042066E0022020E04868C0B98868B0B9A9
:10391000C868A0B90022F273062030730869012834
:1039200078D1727386E0486848B9886838B9C86841
:1039300028B90022F2730869012802D020B179E089
:103940007AE07273012044E005203073C8E74868CC
:1039500000BB8868F0B9C868E0B90020F07307229E
:1039600032730A69012A06D082B163E018E021E0CF
:1039700034E040E04FE0496911B1012904D059E039
:1039800070730220B07355E0012006E0496911B15F
:10399000012902D04EE00120F2E7B073022048E096
:1039A000486838BB886828BBC86818BB032039E062
:1039B00000203EE04868E8B98868D8B9C868C8B946
:1039C0000022F2730869012801D020B132E072733D
:1039D000052030732EE0012030732AE0486848B992
:1039E000886838B9C86828B90120F07309690129C5
:1039F000DED0F1B11EE04868E0B98868D0B9C86887
:103A0000C0B90020F07330730969012911D0002971
:103A10009CD00FE00AE0486860B9886850B9C8686F
:103A200040B90220F07308690128C1D000288DD068
:103A300000E07073002030710848407B002846F099
:103A4000E2870649C87B48B38B46012806F06B879E
:103A50000E46022806F0C687032820E00400002056
:103A600000300240005800406C040020801A06001C
:103A70000008065000100140004800408405002066
:103A80001C030020506E0A0050640A0050750A00A2
:103A9000416E0000416400004175000003E006F043
:103AA000A7870EF022B8FE4E316C7163306BFFF7C2
:103AB00073FDF07AB0B1374601287DD0022801F0BD
:103AC0009387032802F05C86042803F03F840528CE
:103AD00004F0F382062805F0E480072806F00D8044
:103AE00006F01ABFDFF8B88398F80C0001280CD054
:103AF00002287DD003287CD004287BD005287AD0EA
:103B0000062879D0072878D0EAE7DFF898B34FF491
:103B10008051DBF800004162E348034646423246EA
:103B200019460FF055F96420FDF70AFCDC48B43063
:103B3000427808384178083840780FF0EFF90122D0
:103B40001146DA48FFF7A9F9FFF702FDB8F814208B
:103B5000B8F81600D8ED0A0A111A00EE101A02443D
:103B6000B8EEC00A20EE200ABDEEC00A10EE101A10
:103B7000A8F81A10B8F81E00101A00EE100A7218F1
:103B8000F8EEC00A98ED0B0A20EE800ABDEEC00ADE
:103B900010EE100AA8F81C00831A024452420FFAD1
:103BA00082FC721A1FB2121A2780A4F802C012B245
:103BB000891BA280081A00E0FEE303B2E38061469D
:103BC00038460FF005F96420FDF7BAFB06F2EE2641
:103BD000B6B25645B8D95F464FEA080696F90010C6
:103BE00096F90100084401287DDCFFF7B1FC05E0EF
:103BF000CBE02CE27DE3FDE3FDE3FDE3B28AF08A56
:103C0000111A00EE101A1044F8EEC00A96ED0A0AD6
:103C100020EE800ABDEEC00A10EE101A09B27183C0
:103C2000F28BD6ED0B0A801A00EE100AB8EEC00A2D
:103C300020EE200ABDEEC00A10EE100A00B2B083DA
:103C400096F9002096F901301A44012A03DD3A68FA
:103C5000526AAA4210D8421AA2F6C41222800A1846
:103C600002F6C4135B42A2F6C41252426380081AE1
:103C7000A280A0F6C41011E0421AA2F2DC52228007
:103C800001EB000C0CF2DC525342ACF2DC5C6380C2
:103C9000CCF10002081AA280A0F2DC50E08003B24E
:103CA000B4F90420B4F90210B4F900000FF090F850
:103CB0003868406A308391E7FFF74AFCB18AF08A9E
:103CC000D6ED0A0A0A1A00EE102A0144B8EEC00A1C
:103CD00020EE200ABDEEC00A10EE102A13B2738344
:103CE000F08B081A00E02AE000EE100AF8EEC00A95
:103CF00096ED0B0A20EE800ABDEEC00A10EE101AF7
:103D0000B1835A1802F57A725242C81A0FFA82FC2D
:103D1000C3F57A72521AA0F57A7000B2591A20804F
:103D2000A1F57A71A4F802C012B20BB2A280E380AE
:103D300061460FF04DF83868406A308305E0DFF8DF
:103D4000608108F1E4089FED5A8B3868416AB8F940
:103D50000200081AFCF757FA00EE100A21F00041A1
:103D600010EE100A53EC182BFCF75AFAA4D300BF3C
:103D70000FF0F6F8002201214C48FFF78EF80020E2
:103D80003083307070700120F3E346484FF4805167
:103D900000684162444803464642324619460FF0E5
:103DA00017F86420FDF7CCFA3D48B4308278083823
:103DB0008178083880780FF0B1F8012211463B482D
:103DC000FFF76BF84FF47A6BFFF7C2FBB8F81420DB
:103DD000B8F81600D8ED0A0A111A00EE101A1044AD
:103DE000B8EEC00A20EE200ABDEEC00A10EE101A8E
:103DF000A8F81A10B8F81E20801A00EE100A7218DF
:103E0000F8EEC00A98ED0B0A20EE800ABDEEC00A5B
:103E100010EE100AA8F81C00831A024452420FFA4E
:103E200082FC721A121A1FB2891B081A2780A4F882
:103E300002C012B203B2A280E380614638460EF09F
:103E4000C7FF6420FDF77CFA06F2EE26B6B25E45A7
:103E5000BAD9DFF850B0464696F9000096F901103D
:103E6000084403287DDCFFF773FBB08AF28A811ACD
:103E700000EE101A1044F8EEC00A96ED0A0A20EE81
:103E8000800ABDEEC00A10EE101A09B27183F28BDF
:103E9000D6ED0B0A801A00EE100AB8EEC00A0BE04D
:103EA000040000200805002018FCFFFF000C004063
:103EB000000000000000394020EE200ABDEEC00ADC
:103EC00010EE100A00B2B08396F9003096F9012086
:103ED0001A44022A06DDDBF800305F6AAF4212D8CE
:103EE000032A3DD1421AA2F57A6222800A1802F50D
:103EF0007A6252426280C1F57A62121A081AA2806E
:103F0000A0F57A602BE0032A2AD15A6AAA4213D973
:103F10005F6A4F4510D8421AA2F6B83222800A18BA
:103F200002F6B8335B42A2F6B83252426380081AF6
:103F3000A280A0F6B83012E05B6A4B4510D3421A5B
:103F4000A2F5FA6222800A1802F5FA6252426280F1
:103F5000C1F5FA62121A081AA280A0F5FA60E08090
:103F600000E050E0B4F90630B4F90420B4F90210CE
:103F7000B4F900000EF02CFFDBF80000406A30833B
:103F80006AE700BFFFF7E4FAB18AF08A0A1A00EE86
:103F9000102A0144F8EEC00A96ED0A0A20EE800AC3
:103FA000BDEEC00A10EE102A13B27383F08B081A0C
:103FB00000EE100AF8EEC00A96ED0B0A20EE800A19
:103FC000BDEEC00A10EE101AB1835A1802F57A72CB
:103FD0005242C81A0FFA82FCC3F57A72521AA0F53F
:103FE0007A7000B2591A2080A1F57A71A4F802C043
:103FF00012B20BB2A280E38061460EF0E9FE38688F
:10400000406A308304E0DFF82C841FED578B5F4655
:104010003868406AB8F90410401AFCF7F4F800EE6A
:10402000100A21F0004110EE100A53EC182BFCF797
:10403000F7F8A7D30EF094FF00220121FE48FEF707
:104040002CFF002030833070707002209CE6FB480B
:104050004FF4805100684162F948034646423246B7
:1040600019460EF0B5FE6420FDF76AF9F1483038C4
:10407000C2780838C1780838C0780EF04FFF0122A6
:104080001146ED48FEF709FF4FF47A6BFFF760FA2F
:10409000B8F81410B8F81600D8ED0A0A0A1A00EE9B
:1040A000102A0844B8EEC00A20EE200ABDEEC00A6D
:1040B00010EE103AA8F81A30B8F81E10D8ED0B0A16
:1040C000401A00EE100AF118B8EEC00A20EE200ADD
:1040D000BDEEC00A10EE100AA8F81C00421A17B272
:1040E0000144F21A121A49429B1B278009B2181A7E
:1040F000618012B203B2A280E38038460EF068FEFF
:104100006420FDF71DF906F2EE26B6B25E45BDD974
:10411000DFF828B34FEA080696F9000096F9011077
:10412000084405287EDCFFF713FAB38AF28AD6ED3D
:104130000A0A981A00EE100A1A44B8EEC00A20EED5
:10414000200ABDEEC00A10EE100A01B27183F08B96
:10415000D6ED0B0A101A00EE100AB8EEC00A20EED7
:10416000200ABDEEC00A10EE100A00B2B08396F924
:10417000002096F901301A44042A06DDDBF80030ED
:104180005F6AAF4212D8052A3DD1421AA2F57A627F
:1041900022800A1802F57A6252426280C1F57A6280
:1041A000121A081AA280A0F57A602BE0052A2AD1FB
:1041B0005A6AAA4213D95A6A4A4510D8421AA2F634
:1041C000B83222800A1802F6B8335B42A2F6B8323F
:1041D00052426380081AA280A0F6B83012E05B6AEF
:1041E0004B4510D3421AA2F5FA6222800A1802F552
:1041F000FA6252426280C1F5FA62121A081AA2806B
:10420000A0F5FA60E080B4F90630B4F90420B4F9FE
:104210000210B4F900000EF0DBFDDBF80000406A8C
:10422000308379E741E000BFFFF792F9B18AF08A65
:104230000A1A00EE102A0844F8EEC00A96ED0A0A9F
:1042400020EE800ABDEEC00A10EE102A13B273836E
:10425000F18BD6ED0B0A401A00EE100AB8EEC00A38
:1042600020EE200ABDEEC00A10EE101AB1835A18D3
:1042700002F57A725242C81A0FFA82FCC3F57A72BA
:10428000521AA0F57A7000B2591A2080A1F57A71FD
:10429000A4F802C012B20BB2A280E38061460EF015
:1042A00097FD3868406A308304E0DFF888819FED2D
:1042B000658B5F463868416AB8F90600081AFBF753
:1042C000A2FF00EE100A21F0004110EE100A53EC9C
:1042D000182BFBF7A5FFA7D30EF042FE0022012109
:1042E0005548FEF7DAFD00203083307070700320EF
:1042F0004AE552484FF480510068416250480346F5
:104300004642324619460EF063FD6420FDF718F868
:1043100048483038027908380179083800790EF0B9
:10432000FDFD012211464448FEF7B7FD4FF47A6BBC
:10433000FFF70EF9B8F81410B8F816000A1A00EED4
:10434000102A0844F8EEC00A98ED0A0A20EE800A06
:10435000BDEEC00A10EE107AA8F81A70B8F81E1058
:10436000F21B401A00EE100AF119BF1BF8EEC00A4A
:1043700098ED0B0A20EE800ABDEEC00A10EE103A4E
:10438000A8F81C30581A1944D21A00B249422080A9
:1043900009B2618012B2FB1AA2801BB2E3800EF058
:1043A00017FD6420FCF7CCFF06F2EE26B6B25E45A0
:1043B000BED9DFF888B000E0FEE3464696F900007B
:1043C00096F90110084407287EDCFFF7C1F8B28A8D
:1043D000F18AD6ED0A0A501A00EE100A0A44B8EE25
:1043E000C00A20EE200ABDEEC00A10EE100A00B28C
:1043F000708302E0E3E034E28FE3F18BD6ED0B0A49
:10440000511A00EE101AB8EEC00A20EE200ABDEED6
:10441000C00A10EE101A09B2B18396F9002096F97D
:1044200001301344062B13DDDBF80020576AAF423E
:104430001FD80BE0E8000020000C00400805002019
:1044400018FCFFFF0000000000003940072B3FD19F
:104450000A1AA2F57A622280421802F57A62524262
:104460006280C0F57A62521A401AA280A0F57A6082
:104470002DE0072B2CD1536AAB4213D9576A4F4515
:1044800010D80A1AA2F6B8322280421802F6B833BF
:104490005B42A2F6B83252426380401AA280A0F674
:1044A000B83014E0526A4A4512D30A1AA2F5FA62E9
:1044B0002280421802F5FA6252426280C0F5FA6226
:1044C000521AA280401A00E054E0A0F5FA60E080A1
:1044D000B4F90630B4F90420B4F90210B4F90000BC
:1044E0000EF076FCDBF80000406A308366E700BF20
:1044F000FFF72EF8B18AF08AD6ED0A0A0A1A00EE02
:10450000102A0844B8EEC00A20EE200ABDEEC00A08
:1045100010EE102A13B27383F18BD6ED0B0A401AFA
:1045200000EE100AB8EEC00A20EE200ABDEEC00A66
:1045300010EE101AB1835A1802F57A725242C81A54
:104540000FFA82FCC3F57A72521AA0F57A7000B2A3
:10455000591A2080A1F57A71A4F802C012B20BB2E8
:10456000A280E38061460EF033FC3868406A3083F5
:1045700005E0D1E2DFF82C841FED4E8B5F463868F2
:10458000406AB8F90810401AFBF73DFE00EE100A29
:1045900021F0004110EE100A53EC182BFBF740FEFF
:1045A000A6D300BF0EF0DCFC00220121FE48FEF77E
:1045B00074FC00203083307070700420ACE2FB4843
:1045C0004FF4805100684162F94803464642324642
:1045D00019460EF0FDFB6420FCF7B2FEF1483038BE
:1045E000427908380178083840790EF097FC0122AA
:1045F0001146ED48FEF751FC4FF47A6BFEF7A8FF29
:10460000B8F81400B8F81610421A00EE102A084440
:10461000F8EEC00A98ED0A0A20EE800ABDEEC00A44
:1046200010EE103AA8F81A30B8F81E10D8ED0B0AA0
:10463000401A00EE100AF118F71AB8EEC00A9B1BD8
:1046400020EE200ABDEEC00A10EE102AA8F81C20A9
:10465000501A1144BF1A00B24942208009B23FB239
:104660009A1A618013B2A780E3803A460EF0B0FB3D
:104670006420FCF765FE06F2EE26B6B25E45BDD9B3
:10468000DFF828B34FEA080696F9000096F9011002
:10469000084409287EDCFEF75BFFB08AF28AD6ED7B
:1046A0000A0A811A00EE101A0244B8EEC00A20EE7F
:1046B000200ABDEEC00A10EE101A09B27183F08B09
:1046C000101A00EE100AF8EEC00A96ED0B0A20EE62
:1046D000800ABDEEC00A10EE100A00B2B08396F94F
:1046E000002096F901301344082B06DDDBF800208A
:1046F000576AAF4212D8092B3DD1421AA2F57A620D
:1047000022800A1802F57A6252426280C1F57A620A
:10471000121A081AA280A0F57A602BE0092B2AD180
:10472000536AAB4213D9536A4B4510D8421AA2F6CA
:10473000B83222800A1802F6B8335B42A2F6B832C9
:1047400052426380081AA280A0F6B83012E0536A81
:104750004B4510D3421AA2F5FA6222800A1802F5DC
:10476000FA6252426280C1F5FA62121A081AA280F5
:10477000A0F5FA60E080B4F90630B4F90420B4F989
:104780000210B4F900000EF023FBDBF80000406AD1
:10479000308379E741E000BFFEF7DAFEB18AF08AA4
:1047A000D6ED0A0A0A1A00EE102A0844B8EEC00A2A
:1047B00020EE200ABDEEC00A10EE102A13B2738359
:1047C000F18BD6ED0B0A401A00EE100AB8EEC00AC3
:1047D00020EE200ABDEEC00A10EE101AB1835A185E
:1047E00002F57A725242C81A0FFA82FCC3F57A7245
:1047F000521AA0F57A7000B2591A2080A1F57A7188
:10480000A4F802C012B20BB2A280E38061460EF09F
:10481000DFFA3868406A308304E0DFF888811FEDF2
:10482000F78B5F463868416AB8F90A00081AFBF747
:10483000EAFC00EE100A21F0004110EE100A53ECE1
:10484000182BFBF7EDFCA7D30EF08AFB0022012109
:104850005548FEF722FB0020308330707070052031
:104860005AE152484FF48051006841625048034673
:104870004642324619460EF0ABFA6420FCF760FD62
:1048800048483038827908388179083880790EF0C4
:1048900045FB012211464448FEF7FFFA4FF47A6BBC
:1048A000FEF756FEB8F81400B8F81610D8ED0A0A4C
:1048B000421A00EE102A0844B8EEC00A20EE200A80
:1048C000BDEEC00A10EE103AA8F81A30B8F81E1063
:1048D000D8ED0B0A401A00EE100AF218B8EEC00A22
:1048E00020EE200ABDEEC00A10EE101AA8F81C1027
:1048F000881A0A44524217B2F21A521A00B29B1B8B
:104900002080591A678012B20BB2A280E380394628
:104910000EF05EFA6420FCF713FD06F2EE26B6B246
:104920005E45BDD9DFF884B04FEA080696F900006D
:1049300096F90110084406287EDCFEF709FEB08ACD
:10494000F28AD6ED0A0A811A00EE101A1044B8EE67
:10495000C00A20EE200ABDEEC00A10EE101A09B2FD
:104960007183F28BD6ED0B0A801A00EE100AB8EEB6
:10497000C00A20EE200ABDEEC00A10EE100A00B2F6
:10498000B08396F9003096F901201344052B06DD1B
:10499000DBF80020576AAF421CD8062B47D1421AD9
:1049A00008E00000E8000020000C0040080500209E
:1049B00018FCFFFFA2F57A6222800A1802F57A62DB
:1049C00052426280C1F57A62121A081AA280A0F5DA
:1049D0007A602BE0062B2AD1536AAB4213D9536A73
:1049E0004B4510D8421AA2F6B83222800A1802F6B5
:1049F000B8335B42A2F6B83252426380081AA280F2
:104A0000A0F6B83012E0536A4B4510D3421AA2F513
:104A1000FA6222800A1802F5FA6252426280C1F5F7
:104A2000FA62121A081AA280A0F5FA60E080B4F9BE
:104A30000630B4F9042000E04BE0B4F90210B4F9F8
:104A400000000EF0C5F9DBF80000406A30836DE726
:104A5000FEF77EFDB18AF08A0A1A00EE102A084499
:104A6000F8EEC00A96ED0A0A20EE800ABDEEC00AF2
:104A700010EE102A13B27383F18BD6ED0B0A401A95
:104A800000EE100AB8EEC00A20EE200ABDEEC00A01
:104A900010EE101AB1835A1802F57A725242C81AEF
:104AA0000FFA82FCC3F57A72521AA0F57A7000B23E
:104AB000591A2080A1F57A71A4F802C012B20BB283
:104AC000A280E38061460EF083F93868406A308343
:104AD00004E0DFF8F8839FEDFE8B5F463868406A9C
:104AE000B8F90C10401AFBF78EFB00EE100A21F00B
:104AF000004110EE100A53EC182BFBF791FBA7D3E3
:104B00000EF02EFA00220121F348FEF7C6F900202C
:104B10003083307070700620E1E2F0484FF480512D
:104B200000684162EE4803464642324619460EF09E
:104B30004FF96420FCF704FCE4483038C2790838A7
:104B4000C1790838C0790EF0E9F901221146E2482E
:104B5000FEF7A3F94FF47A6BFEF7FAFCB8F81410DD
:104B6000B8F81600D8ED0A0A0A1A00EE102A08440E
:104B7000B8EEC00A20EE200ABDEEC00A10EE103AD0
:104B8000A8F81A30B8F81E10D8ED0B0A401A00EE3B
:104B9000100AF118B8EEC00A20EE200ABDEEC00AD5
:104BA00010EE100AA8F81C00421A014417B249423C
:104BB000278009B2618000E015E1F21A121A9B1BEE
:104BC000181A12B203B2A280E38038460EF000F940
:104BD0006420FCF7B5FB06F2EE26B6B25E45BBD903
:104BE000DFF8F8B24FEA080696F9000096F90110CE
:104BF000084405287EDCFEF7ABFCB28AF08AD6EDCD
:104C00000A0A111A00EE101A0244B8EEC00A20EE89
:104C1000200ABDEEC00A10EE101A09B27183F08BA3
:104C2000D6ED0B0A101A00EE100AB8EEC00A20EEFC
:104C3000200ABDEEC00A10EE100A00B2B08396F949
:104C4000003096F901201A44042A10DC421AA2F519
:104C50007A6222800A1802F57A6252426280C1F5B5
:104C60007A62121A081AA280A0F57A6045E0052A35
:104C700044D1DBF80020576A4FF47A739F4210D278
:104C8000421AA2F6B83222800A1802F6B8335B4202
:104C9000A2F6B83252426380081AA280A0F6B83059
:104CA0002BE0576A9F4213D3536A534510D8421AD8
:104CB000A2F2DC5222800A1802F2DC535B42A2F21A
:104CC000DC5252426380081AA280A0F2DC5014E049
:104CD000536A534512D3421AA2F57A7222800A18F7
:104CE00002F57A7252426280C1F57A72121AA2807B
:104CF000081A00E053E0A0F57A70E080B4F90630BD
:104D0000B4F90420B4F90210B4F900000EF060F810
:104D1000DBF80000406A308366E700BFFEF718FC4E
:104D2000B18AF08AD6ED0A0A0A1A00EE102A08445F
:104D3000B8EEC00A20EE200ABDEEC00A10EE102A1E
:104D400013B27383F18BD6ED0B0A401A00EE100AF2
:104D5000B8EEC00A20EE200ABDEEC00A10EE101A0E
:104D6000B1835A1802F57A725242C81A0FFA82FCBD
:104D7000C3F57A72521AA0F57A7000B2591A2080DF
:104D8000A1F57A71A4F802C012B20BB2A280E3803E
:104D900061460EF01DF83868406A308304E0DFF8A1
:104DA0002C819FED4B8B5F463868406AB8F90E1036
:104DB000401AFBF728FA00EE100A21F0004110EE2D
:104DC000100A53EC182BFBF72BFAA7D30EF0C8F8F8
:104DD000002201214048FEF760F800203083307047
:104DE000707007207BE1387B68B102287AD00328F5
:104DF00079D0042878D0052877D0062876D00728DF
:104E000075D005F089BD64235842024611460DF065
:104E1000DFFFFEF79DFB9FED2E8BB84602E000BF43
:104E2000FEF796FBB8F81410B8F81600081AFBF74E
:104E3000D9F900EE100A21F0004110EE100A53ECEF
:104E4000182BFBF7EDF9EBD3DFF890B00020DBF87F
:104E5000001048624FF47A7633461946724208468B
:104E60000DF0B6FF6420FCF76BFA18483038027872
:104E700008380178083800780EF050F80122114601
:104E80001548FEF70AF800BFFEF762FBB8F81410E9
:104E9000B8F816000A1A00EE102A0144F8EEC00A0B
:104EA00098ED0A0A20EE800ABDEEC00A10EE102A24
:104EB000A8F81A20B8F81E00D8ED0B0A081A00EE60
:104EC000100AB8EEC00A20EE200A11E0E800002027
:104ED0000000000000003940000C004008050020E0
:104EE00018FCFFFFFDE099E12EE2C3E272E3FDE36F
:104EF000BDEEC00AB11A10EE100AA8F81C000B187B
:104F00001FB2B318091A1A18278009B25242181A88
:104F1000618012B203B2A280E38038460DF058FFE0
:104F20006420FCF70DFA06F2EE26B6B25645ABD970
:104F30005F46464696F9000096F90110084401289C
:104F40007EDCFEF705FBB28AF08AD6ED0A0A111A5A
:104F500000EE101A0244B8EEC00A20EE200ABDEEA0
:104F6000C00A10EE101A09B27183F08BD6ED0B0A4D
:104F7000101A00EE100AB8EEC00A20EE200ABDEEAC
:104F8000C00A10EE100A00B2B08396F9002096F91C
:104F900001301A44002A07DDD7F80080D8F824C071
:104FA000CC4512D3012A2BD1421A02F6C412228018
:104FB0000A18A2F6C4135B4202F6C412524263807E
:104FC000081AA28000F6C41019E0012A18D1D8F8F6
:104FD0002420AA4214D9D8F824204A4510D8421ACD
:104FE00002F2DC5222800A18A2F2DC535B4202F287
:104FF000DC5252426380081AA28000F2DC50E0804A
:10500000B4F90630B4F90420B4F90210B4F9000080
:105010000DF0DEFE3868406A30838BE7FEF798FAC1
:10502000B18AF08AD6ED0A0A0A1A00EE102AB8EE02
:10503000C00A20EE200ABDEEC00A10EE102A00E0E1
:105040002EE00FFA82FCA6F81AC00144F08BD6EDD0
:105050000B0A081A00EE100ACCF57A71B8EEC00AF5
:1050600020EE200ABDEEC00A10EE103AB383C81835
:105070000CEB0302C91A00B202F57A72208009B261
:105080005242ACEB0303618012B203F57A73A28043
:105090001BB2E3800DF09CFE3868406A308301E06B
:1050A000DFF824843868406AB8F91010401AFBF71A
:1050B000AAF800EE100A21F0004110EE100A53EC9D
:1050C000182BFBF7ADF8A9D30DF04AFF0022012100
:1050D000FE48FDF7E2FE0020308330707070F07201
:1050E0008FE664235842024611460DF071FEFEF72A
:1050F0002FFA1FED898B01E0FEF72AFAB98AF88AA8
:10510000081AFBF76FF800EE100A21F0004110EECC
:10511000100A53EC182BFBF783F8EDD3EC4E4FF449
:10512000805031684862EB480346424219460DF010
:105130004FFE6420FCF704F9E348303882780838E1
:105140008178083880780DF0E9FEDFF880B301221D
:1051500011465846FDF7A1FE0CF082FFDFF8688388
:1051600040E000BFFEF7F4F9B98AF88AD7ED0A0AE1
:105170000A1A00EE102A0144B8EEC00A20EE200AF6
:10518000BDEEC00A10EE102A13B27B83F88BD7ED68
:105190000B0A081A00EE100AC3F57A72B8EEC00ABC
:1051A00020EE200ABDEEC00A10EE100AB883C11A24
:1051B000A1F57A710FFA81FC1918121A01F57A71AA
:1051C0004942181AA4F800C009B2A0F57A706180AB
:1051D00012B203B2A280E38060460DF0F9FD3068A0
:1051E000406A38833068416AB8F91400081AFBF73E
:1051F0000AF800EE100A21F0004110EE100A53ECFC
:10520000182BFBF70DF8ADD30DF0AAFE00220121FB
:105210005846FDF742FE002001F05CBD6423584271
:10522000024611460DF0D4FDFEF792F91FEDD88B22
:1052300002E000BFFEF78CF9B98AF88A081AFAF77B
:10524000D1FF00EE100A21F0004110EE100A53ECDD
:10525000182BFAF7E5FFEDD39D4E4FF480503168DF
:1052600048629C480346424219460DF0B1FD642055
:10527000FCF766F894483038C2780838C1780838A6
:10528000C0780DF04BFEDFF844B2012211465846BB
:10529000FDF703FE0CF0BAFFDFF82C8240E000BF00
:1052A000FEF756F9B88AF98A421A00EE102A01442C
:1052B000F8EEC00A97ED0A0A20EE800ABDEEC00A99
:1052C00010EE102A13B27B83F88BD7ED0B0A081A65
:1052D00000EE100AC3F57A72B8EEC00A20EE200A7A
:1052E000BDEEC00A10EE100AB883C11AA1F57A719A
:1052F0000FFA81FC1918121A01F57A714942181A2D
:10530000A4F800C009B2A0F57A70618012B203B2AD
:10531000A280E38060460DF05BFD3068406A388310
:105320003068416AB8F91600081AFAF76CFF00EE07
:10533000100A21F0004110EE100A53EC182BFAF776
:105340006FFF85F07480ABE7642358420246114634
:105350000DF03EFDFEF7FCF89FED5F8B02E000BF15
:10536000FEF7F6F8B98AF88A081AFAF73BFF00EE5A
:10537000100A21F0004110EE100A53EC182BFAF736
:105380004FFFEDD3524E4FF4805031684862514880
:105390000346424219460DF01BFD6420FBF7D0FF87
:1053A00049483038027908380179083800790DF019
:1053B000B5FDDFF818B1012211465846FDF76DFD25
:1053C0000CF0FEFFDFF8008140E000BFFEF7C0F800
:1053D000B98AF88AD7ED0A0A0A1A00EE102A01449F
:1053E000B8EEC00A20EE200ABDEEC00A10EE102A68
:1053F00013B27B83F88BD7ED0B0A081A00EE100A64
:10540000C3F57A72B8EEC00A20EE200ABDEEC00ADB
:1054100010EE100AB883C11AA1F57A710FFA81FC57
:105420001918121A01F57A714942181AA4F800C025
:1054300009B2A0F57A70618012B203B2A280E38053
:1054400060460DF0C5FC3068406A38833068416AB8
:10545000B8F91800081AFAF7D6FE00EE100A21F083
:10546000004110EE100A53EC182BFAF7D9FE85F024
:105470008980ABE764235842024611460DF0A8FC30
:10548000FEF766F89FED148B02E000BFFEF760F8B0
:10549000B98AF88A081AFAF7A5FE00EE100A21F078
:1054A000004110EE100A53EC182BFAF7B9FEEDD3B9
:1054B000074E4FF480503168486206480346424226
:1054C00019460DF085FC0BE0E8000020000C0040C0
:1054D0000805002018FCFFFF000000000000394014
:1054E0006420FBF72DFFFE484279083841790838DF
:1054F00040790DF013FDDFF8ECB301221146584658
:10550000FDF7CBFC0DF036F8DFF8D48308F1300856
:1055100040E000BFFEF71CF8B88AF98AD7ED0A0A06
:10552000421A00EE102A0144B8EEC00A20EE200A0A
:10553000BDEEC00A10EE102A13B27B83F88BD7EDB4
:105540000B0A081A00EE100AC3F57A72B8EEC00A08
:1055500020EE200ABDEEC00A10EE100AB883C11A70
:10556000A1F57A710FFA81FC1918121A01F57A71F6
:105570004942181AA4F800C009B2A0F57A706180F7
:1055800012B203B2A280E38060460DF021FC3068C5
:10559000406A38833068416AB8F91A00081AFAF785
:1055A00032FE00EE100A21F0004110EE100A53EC1A
:1055B000182BFAF735FEADD30DF0D2FC00220121F5
:1055C0005846FDF76AFC0020388338707870052053
:1055D00005F0A1B964235842024611460DF0F8FBCC
:1055E000FDF7B6FF1FED448B02E000BFFDF7B0FFF3
:1055F000B98AF88A081AFAF7F5FD00EE100A21F0C8
:10560000004110EE100A53EC182BFAF709FEEDD307
:10561000B54E4FF4805031684862B4480346424268
:1056200019460DF0D5FB6420FBF78AFEAC48827961
:1056300008388179083880790DF070FCDFF8A4B261
:10564000012211465846FDF728FC0CF0DFFDDFF87B
:10565000908208F130083FE0FDF77AFFB88AF98AB6
:10566000D7ED0A0A421A00EE102A0144B8EEC00A29
:1056700020EE200ABDEEC00A10EE102A13B27B8382
:10568000F88BD7ED0B0A081A00EE100AC3F57A72F0
:10569000B8EEC00A20EE200ABDEEC00A10EE100AD5
:1056A000B883C11AA1F57A710FFA81FC1918121A80
:1056B00001F57A714942181AA4F800C009B2A0F5A0
:1056C0007A70618012B203B2A280E38060460DF06E
:1056D0007FFB3068406A38833068406AB8F91C1034
:1056E000401AFAF790FD00EE100A00E00FE021F0FA
:1056F000004110EE100A53EC182BFAF791FDABD3D2
:105700000DF02EFC00220121584605F0FDB864235F
:105710005842024611460DF05BFBFDF719FF1FEDE5
:10572000928B01E0FDF714FFB88AF98AB846401A57
:10573000FAF758FD00EE100A21F0004110EE100AB1
:1057400053EC182BFAF76CFDECD367484FF48051FB
:1057500000684162654803464642324619460DF0EC
:1057600037FB6420FBF7ECFD5D48C2790838C1794E
:105770000838C0790DF0D2FB012211465948FDF7D7
:105780008CFB40F6AC5B00BFFDF7E2FEB8F81420DE
:10579000B8F81600111A00EE101A0244F8EEC00A0A
:1057A00098ED0A0A20EE800ABDEEC00A10EE101A2B
:1057B000A8F81A10B8F81E00101A00EE100A721895
:1057C000F8EEC00A98ED0B0A20EE800ABDEEC00A82
:1057D00010EE100AA8F81C00831A024452420FFA75
:1057E00082FC721A121A1FB2891B081A2780A4F8A9
:1057F00002C012B203B2A280E380614638460DF0C7
:10580000E7FA6420FBF79CFD06F2EE26B6B25E4591
:10581000BAD9DFF8D4B0464696F9000096F90110DF
:10582000084403285BDCFDF793FEB28AF08AD6EDCC
:105830000A0A111A00EE101A0244B8EEC00A20EE4D
:10584000200ABDEEC00A10EE101A09B27183F08B67
:10585000D6ED0B0A101A00EE100AB8EEC00A20EEC0
:10586000200ABDEEC00A10EE100A00B2B08396F90D
:10587000002096F901301344022B06DDDBF80020EE
:10588000576AAF4212D8032B46D1421AA2F6AC5245
:1058900022800A1802F6AC535B42A2F6AC52524286
:1058A0006380081AA280A0F6AC5034E0032B33D1F9
:1058B000536AAB421CD9536A4B4519D8421AA2F617
:1058C000C41222800A1802F6C4135B42A2F6C41264
:1058D00052426380081AA280A0F6C4101BE06CE05C
:1058E000B8000020000C00400805002018FCFFFF55
:1058F000536A4B4510D3421AA2F5AF6222800A18B0
:1059000002F5AF6252426280C1F5AF62121A081A04
:10591000A280A0F5AF60E080B4F90630B4F90420AD
:10592000B4F90210B4F900000DF052FADBF80000EF
:10593000406A308370E700BFFDF70AFEB18AF08A43
:10594000D6ED0A0A0A1A00EE102A0844B8EEC00A78
:1059500020EE200ABDEEC00A10EE102A13B27383A7
:10596000F18BD6ED0B0A401A00EE100AB8EEC00A11
:1059700020EE200ABDEEC00A10EE101AB1835A18AC
:1059800002F57A725242C81A0FFA82FCC3F57A7293
:10599000521AA0F57A7000B2591A2080A1F57A71D6
:1059A000A4F802C012B20BB2A280E38061460DF0EF
:1059B0000FFA3868406A308302E0DFF854845F46AB
:1059C0003868416AB8F91E00081AFAF71CFC00EEA4
:1059D000100A21F0004110EE100A53EC182BFAF7D0
:1059E0001FFCA9D3FFF7F2B9387B68B101287DD03D
:1059F00003287CD004287BD005287AD0062879D0CB
:105A0000072878D004F088BF642358420246114624
:105A10000DF0DEF9FDF79CFD9FEDFE8B02E000BF6F
:105A2000FDF796FDB98AF88AB846081AFAF7DAFB44
:105A300000EE100A21F0004110EE100A53EC182B72
:105A4000FAF7EEFBECD3F5490020096848624FF401
:105A50007A7633461946724208460DF0B9F9642049
:105A6000FBF76EFCEA4830380278083801780838CD
:105A700000780DF053FA01221146E948FDF70DFABE
:105A80004FF47A6BFDF764FDB8F81410B8F81600FF
:105A9000D8ED0A0A0A1A00EE102A0144B8EEC00A2C
:105AA00020EE200ABDEEC00A10EE102AA8F81A2037
:105AB000B8F81E00D8ED0B0A081A00EE100AB11A49
:105AC000B8EEC00A20EE200ABDEEC00A10EE100AA1
:105AD000A8F81C000B181FB2091AB3181A1827804F
